{
  "contractName": "MyContract",
  "abi": [
    {
      "anonymous": false,
      "inputs": [
        {
          "indexed": true,
          "internalType": "address",
          "name": "previousOwner",
          "type": "address"
        },
        {
          "indexed": true,
          "internalType": "address",
          "name": "newOwner",
          "type": "address"
        }
      ],
      "name": "OwnershipTransferred",
      "type": "event"
    },
    {
      "stateMutability": "payable",
      "type": "fallback",
      "payable": true
    },
    {
      "inputs": [
        {
          "internalType": "uint256",
          "name": "",
          "type": "uint256"
        }
      ],
      "name": "ads",
      "outputs": [
        {
          "internalType": "uint256",
          "name": "adCount",
          "type": "uint256"
        },
        {
          "internalType": "uint256",
          "name": "price",
          "type": "uint256"
        },
        {
          "internalType": "uint256",
          "name": "expires",
          "type": "uint256"
        },
        {
          "internalType": "string",
          "name": "message",
          "type": "string"
        },
        {
          "internalType": "string",
          "name": "url",
          "type": "string"
        },
        {
          "internalType": "address",
          "name": "buyer",
          "type": "address"
        },
        {
          "internalType": "bool",
          "name": "sold",
          "type": "bool"
        }
      ],
      "stateMutability": "view",
      "type": "function",
      "constant": true
    },
    {
      "inputs": [
        {
          "internalType": "uint256",
          "name": "",
          "type": "uint256"
        }
      ],
      "name": "buyers",
      "outputs": [
        {
          "internalType": "address",
          "name": "",
          "type": "address"
        }
      ],
      "stateMutability": "view",
      "type": "function",
      "constant": true
    },
    {
      "inputs": [],
      "name": "owner",
      "outputs": [
        {
          "internalType": "address",
          "name": "",
          "type": "address"
        }
      ],
      "stateMutability": "view",
      "type": "function",
      "constant": true
    },
    {
      "inputs": [],
      "name": "renounceOwnership",
      "outputs": [],
      "stateMutability": "nonpayable",
      "type": "function"
    },
    {
      "inputs": [
        {
          "internalType": "address",
          "name": "newOwner",
          "type": "address"
        }
      ],
      "name": "transferOwnership",
      "outputs": [],
      "stateMutability": "nonpayable",
      "type": "function"
    },
    {
      "stateMutability": "payable",
      "type": "receive",
      "payable": true
    },
    {
      "inputs": [
        {
          "internalType": "uint256",
          "name": "adID",
          "type": "uint256"
        },
        {
          "internalType": "uint256",
          "name": "_expires",
          "type": "uint256"
        },
        {
          "internalType": "string",
          "name": "_message",
          "type": "string"
        },
        {
          "internalType": "string",
          "name": "_url",
          "type": "string"
        }
      ],
      "name": "buyAd",
      "outputs": [
        {
          "internalType": "string",
          "name": "",
          "type": "string"
        }
      ],
      "stateMutability": "payable",
      "type": "function",
      "payable": true
    },
    {
      "inputs": [
        {
          "internalType": "uint256",
          "name": "adID",
          "type": "uint256"
        }
      ],
      "name": "showAd",
      "outputs": [
        {
          "internalType": "string",
          "name": "",
          "type": "string"
        }
      ],
      "stateMutability": "view",
      "type": "function",
      "constant": true
    },
    {
      "inputs": [],
      "name": "getPrice",
      "outputs": [
        {
          "internalType": "uint256",
          "name": "",
          "type": "uint256"
        }
      ],
      "stateMutability": "view",
      "type": "function",
      "constant": true
    },
    {
      "inputs": [
        {
          "internalType": "uint256",
          "name": "newPrice",
          "type": "uint256"
        }
      ],
      "name": "changePrice",
      "outputs": [],
      "stateMutability": "nonpayable",
      "type": "function"
    },
    {
      "inputs": [
        {
          "internalType": "uint256",
          "name": "adID",
          "type": "uint256"
        }
      ],
      "name": "closeAd",
      "outputs": [],
      "stateMutability": "nonpayable",
      "type": "function"
    },
    {
      "inputs": [],
      "name": "refund",
      "outputs": [],
      "stateMutability": "nonpayable",
      "type": "function"
    },
    {
      "inputs": [],
      "name": "getBalance",
      "outputs": [
        {
          "internalType": "uint256",
          "name": "",
          "type": "uint256"
        }
      ],
      "stateMutability": "view",
      "type": "function",
      "constant": true
    },
    {
      "inputs": [],
      "name": "withdrawAll",
      "outputs": [],
      "stateMutability": "nonpayable",
      "type": "function"
    }
  ],
  "bytecode": "0x6080604052600360015560006002556509184e72a00060085534801561002457600080fd5b5061004161003661004660201b60201c565b61004e60201b60201c565b610112565b600033905090565b60008060009054906101000a900473ffffffffffffffffffffffffffffffffffffffff169050816000806101000a81548173ffffffffffffffffffffffffffffffffffffffff021916908373ffffffffffffffffffffffffffffffffffffffff1602179055508173ffffffffffffffffffffffffffffffffffffffff168173ffffffffffffffffffffffffffffffffffffffff167f8be0079c531659141344cd1fd0a4f28419497f9722a3daafe3b4186f6b6457e060405160405180910390a35050565b61157f806101216000396000f3fe6080604052600436106100c65760003560e01c8063853828b61161007f578063a2b40d1911610059578063a2b40d191461023e578063edfef7ca14610267578063f2aa821814610297578063f2fde38b146102d4576100cd565b8063853828b6146101d15780638da5cb5b146101e857806398d5fdca14610213576100cd565b8063111870d9146100cf57806311a7a4c0146100f857806312065fe01461013b578063590e1ae314610166578063715018a61461017d5780637df9364a14610194576100cd565b366100cd57005b005b3480156100db57600080fd5b506100f660048036038101906100f19190610e26565b6102fd565b005b34801561010457600080fd5b5061011f600480360381019061011a9190610e26565b610439565b6040516101329796959493929190610f57565b60405180910390f35b34801561014757600080fd5b506101506105b8565b60405161015d9190610fd4565b60405180910390f35b34801561017257600080fd5b5061017b6105c0565b005b34801561018957600080fd5b506101926105c2565b005b3480156101a057600080fd5b506101bb60048036038101906101b69190610e26565b61064a565b6040516101c89190610fef565b60405180910390f35b3480156101dd57600080fd5b506101e66106f2565b005b3480156101f457600080fd5b506101fd61082e565b60405161020a9190611011565b60405180910390f35b34801561021f57600080fd5b50610228610857565b6040516102359190610fd4565b60405180910390f35b34801561024a57600080fd5b5061026560048036038101906102609190610e26565b610861565b005b610281600480360381019061027c9190611161565b6108e7565b60405161028e9190610fef565b60405180910390f35b3480156102a357600080fd5b506102be60048036038101906102b99190610e26565b610b3f565b6040516102cb9190611011565b60405180910390f35b3480156102e057600080fd5b506102fb60048036038101906102f6919061122c565b610b75565b005b80336006600083815260200190815260200160002060050160009054906101000a900473ffffffffffffffffffffffffffffffffffffffff1673ffffffffffffffffffffffffffffffffffffffff168173ffffffffffffffffffffffffffffffffffffffff161461036d57600080fd5b604051806020016040528060008152506006600085815260200190815260200160002060030190805190602001906103a6929190610d39565b5060006006600085815260200190815260200160002060050160006101000a81548173ffffffffffffffffffffffffffffffffffffffff021916908373ffffffffffffffffffffffffffffffffffffffff16021790555060006006600085815260200190815260200160002060050160146101000a81548160ff0219169083151502179055506104346105c0565b505050565b600660205280600052604060002060009150905080600001549080600101549080600201549080600301805461046e90611288565b80601f016020809104026020016040519081016040528092919081815260200182805461049a90611288565b80156104e75780601f106104bc576101008083540402835291602001916104e7565b820191906000526020600020905b8154815290600101906020018083116104ca57829003601f168201915b5050505050908060040180546104fc90611288565b80601f016020809104026020016040519081016040528092919081815260200182805461052890611288565b80156105755780601f1061054a57610100808354040283529160200191610575565b820191906000526020600020905b81548152906001019060200180831161055857829003601f168201915b5050505050908060050160009054906101000a900473ffffffffffffffffffffffffffffffffffffffff16908060050160149054906101000a900460ff16905087565b600047905090565b565b6105ca610c6d565b73ffffffffffffffffffffffffffffffffffffffff166105e861082e565b73ffffffffffffffffffffffffffffffffffffffff161461063e576040517f08c379a000000000000000000000000000000000000000000000000000000000815260040161063590611306565b60405180910390fd5b6106486000610c75565b565b606060066000838152602001908152602001600020600301805461066d90611288565b80601f016020809104026020016040519081016040528092919081815260200182805461069990611288565b80156106e65780601f106106bb576101008083540402835291602001916106e6565b820191906000526020600020905b8154815290600101906020018083116106c957829003601f168201915b50505050509050919050565b6106fa610c6d565b73ffffffffffffffffffffffffffffffffffffffff1661071861082e565b73ffffffffffffffffffffffffffffffffffffffff161461076e576040517f08c379a000000000000000000000000000000000000000000000000000000000815260040161076590611306565b60405180910390fd5b60008061077961082e565b73ffffffffffffffffffffffffffffffffffffffff166107976105b8565b6040516107a390611357565b60006040518083038185875af1925050503d80600081146107e0576040519150601f19603f3d011682016040523d82523d6000602084013e6107e5565b606091505b50915091508161082a576040517f08c379a0000000000000000000000000000000000000000000000000000000008152600401610821906113b8565b60405180910390fd5b5050565b60008060009054906101000a900473ffffffffffffffffffffffffffffffffffffffff16905090565b6000600854905090565b610869610c6d565b73ffffffffffffffffffffffffffffffffffffffff1661088761082e565b73ffffffffffffffffffffffffffffffffffffffff16146108dd576040517f08c379a00000000000000000000000000000000000000000000000000000000081526004016108d490611306565b60405180910390fd5b8060088190555050565b60608484806008546108f99190611407565b34101561090557600080fd5b8660008110158015610918575060015481105b61092157600080fd5b60001515600660008a815260200190815260200160002060050160149054906101000a900460ff1615151461095557600080fd5b6040518060e0016040528060025481526020016008548152602001620151808961097f9190611407565b4261098a9190611461565b81526020018781526020018681526020013373ffffffffffffffffffffffffffffffffffffffff16815260200160011515815250600660008a81526020019081526020016000206000820151816000015560208201518160010155604082015181600201556060820151816003019080519060200190610a0b929190610d39565b506080820151816004019080519060200190610a28929190610d39565b5060a08201518160050160006101000a81548173ffffffffffffffffffffffffffffffffffffffff021916908373ffffffffffffffffffffffffffffffffffffffff16021790555060c08201518160050160146101000a81548160ff021916908315150217905550905050600660008981526020019081526020016000206003018054610ab490611288565b80601f0160208091040260200160405190810160405280929190818152602001828054610ae090611288565b8015610b2d5780601f10610b0257610100808354040283529160200191610b2d565b820191906000526020600020905b815481529060010190602001808311610b1057829003601f168201915b50505050509350505050949350505050565b60038160038110610b4f57600080fd5b016000915054906101000a900473ffffffffffffffffffffffffffffffffffffffff1681565b610b7d610c6d565b73ffffffffffffffffffffffffffffffffffffffff16610b9b61082e565b73ffffffffffffffffffffffffffffffffffffffff1614610bf1576040517f08c379a0000000000000000000000000000000000000000000000000000000008152600401610be890611306565b60405180910390fd5b600073ffffffffffffffffffffffffffffffffffffffff168173ffffffffffffffffffffffffffffffffffffffff161415610c61576040517f08c379a0000000000000000000000000000000000000000000000000000000008152600401610c5890611529565b60405180910390fd5b610c6a81610c75565b50565b600033905090565b60008060009054906101000a900473ffffffffffffffffffffffffffffffffffffffff169050816000806101000a81548173ffffffffffffffffffffffffffffffffffffffff021916908373ffffffffffffffffffffffffffffffffffffffff1602179055508173ffffffffffffffffffffffffffffffffffffffff168173ffffffffffffffffffffffffffffffffffffffff167f8be0079c531659141344cd1fd0a4f28419497f9722a3daafe3b4186f6b6457e060405160405180910390a35050565b828054610d4590611288565b90600052602060002090601f016020900481019282610d675760008555610dae565b82601f10610d8057805160ff1916838001178555610dae565b82800160010185558215610dae579182015b82811115610dad578251825591602001919060010190610d92565b5b509050610dbb9190610dbf565b5090565b5b80821115610dd8576000816000905550600101610dc0565b5090565b6000604051905090565b600080fd5b600080fd5b6000819050919050565b610e0381610df0565b8114610e0e57600080fd5b50565b600081359050610e2081610dfa565b92915050565b600060208284031215610e3c57610e3b610de6565b5b6000610e4a84828501610e11565b91505092915050565b610e5c81610df0565b82525050565b600081519050919050565b600082825260208201905092915050565b60005b83811015610e9c578082015181840152602081019050610e81565b83811115610eab576000848401525b50505050565b6000601f19601f8301169050919050565b6000610ecd82610e62565b610ed78185610e6d565b9350610ee7818560208601610e7e565b610ef081610eb1565b840191505092915050565b600073ffffffffffffffffffffffffffffffffffffffff82169050919050565b6000610f2682610efb565b9050919050565b610f3681610f1b565b82525050565b60008115159050919050565b610f5181610f3c565b82525050565b600060e082019050610f6c600083018a610e53565b610f796020830189610e53565b610f866040830188610e53565b8181036060830152610f988187610ec2565b90508181036080830152610fac8186610ec2565b9050610fbb60a0830185610f2d565b610fc860c0830184610f48565b98975050505050505050565b6000602082019050610fe96000830184610e53565b92915050565b600060208201905081810360008301526110098184610ec2565b905092915050565b60006020820190506110266000830184610f2d565b92915050565b600080fd5b600080fd5b7f4e487b7100000000000000000000000000000000000000000000000000000000600052604160045260246000fd5b61106e82610eb1565b810181811067ffffffffffffffff8211171561108d5761108c611036565b5b80604052505050565b60006110a0610ddc565b90506110ac8282611065565b919050565b600067ffffffffffffffff8211156110cc576110cb611036565b5b6110d582610eb1565b9050602081019050919050565b82818337600083830152505050565b60006111046110ff846110b1565b611096565b9050828152602081018484840111156111205761111f611031565b5b61112b8482856110e2565b509392505050565b600082601f8301126111485761114761102c565b5b81356111588482602086016110f1565b91505092915050565b6000806000806080858703121561117b5761117a610de6565b5b600061118987828801610e11565b945050602061119a87828801610e11565b935050604085013567ffffffffffffffff8111156111bb576111ba610deb565b5b6111c787828801611133565b925050606085013567ffffffffffffffff8111156111e8576111e7610deb565b5b6111f487828801611133565b91505092959194509250565b61120981610f1b565b811461121457600080fd5b50565b60008135905061122681611200565b92915050565b60006020828403121561124257611241610de6565b5b600061125084828501611217565b91505092915050565b7f4e487b7100000000000000000000000000000000000000000000000000000000600052602260045260246000fd5b600060028204905060018216806112a057607f821691505b602082108114156112b4576112b3611259565b5b50919050565b7f4f776e61626c653a2063616c6c6572206973206e6f7420746865206f776e6572600082015250565b60006112f0602083610e6d565b91506112fb826112ba565b602082019050919050565b6000602082019050818103600083015261131f816112e3565b9050919050565b600081905092915050565b50565b6000611341600083611326565b915061134c82611331565b600082019050919050565b600061136282611334565b9150819050919050565b7f4661696c656420746f2073656e64204574686572000000000000000000000000600082015250565b60006113a2601483610e6d565b91506113ad8261136c565b602082019050919050565b600060208201905081810360008301526113d181611395565b9050919050565b7f4e487b7100000000000000000000000000000000000000000000000000000000600052601160045260246000fd5b600061141282610df0565b915061141d83610df0565b9250817fffffffffffffffffffffffffffffffffffffffffffffffffffffffffffffffff0483118215151615611456576114556113d8565b5b828202905092915050565b600061146c82610df0565b915061147783610df0565b9250827fffffffffffffffffffffffffffffffffffffffffffffffffffffffffffffffff038211156114ac576114ab6113d8565b5b828201905092915050565b7f4f776e61626c653a206e6577206f776e657220697320746865207a65726f206160008201527f6464726573730000000000000000000000000000000000000000000000000000602082015250565b6000611513602683610e6d565b915061151e826114b7565b604082019050919050565b6000602082019050818103600083015261154281611506565b905091905056fea26469706673582212201b8efa46a192366df13ccebb9d770c9e0183cce55e8aae1954e7fb67abc5b7b164736f6c634300080a0033",
  "immutableReferences": {},
  "source": "// SPDX-License-Identifier: MIT\npragma solidity >=0.8.0;\nimport \"@openzeppelin/contracts/access/Ownable.sol\";\n//import \"hardhat/console.sol\";\n\ncontract MyContract is Ownable{\n\n//Determine how many adSpots are available;\n  uint spots = 3;\n  uint adCount = 0;\n\n//all buyers who get to close their adSpace and get a refund\n  address[3] public buyers;\n\n//all avaialble ad spaces\n  mapping (uint => Ad) public ads;\n\n//Ad specifications\n\n  struct Ad {\n    uint adCount;\n    uint price;\n    uint expires;\n    string message;\n    string url;\n    address buyer;\n    bool sold;\n  }\n\n//Buyer's balance\n  mapping (address => uint) balances;\n\n//Price of a single adSpace;\n  uint price = 1e13; //0.0001 ether\n  \n\n//Verify it's the owner of an ad that's trying to call the contract;\n  modifier verifyBuyer (uint adID, address _address) {\n    require(_address == ads[adID].buyer);\n    _;\n  }\n\n//Verify buyer paid enough for the adSpace or have enough balance in their account;\n  modifier verifyAmount(uint adID, uint expires) {\n    require(msg.value >= price*expires);\n    _;\n  }\n\n//Verify the adID exists within range\n  modifier verifyExists(uint adID) {\n    require (adID >= 0 && adID < spots);\n    _;\n  }\n\n//Pick an adSpace # from the mapping and input a message to be displayed on the website\n  function buyAd(uint adID, uint _expires, string memory _message, string memory _url) public payable verifyAmount(adID, _expires) verifyExists(adID) returns(string memory) {\n    require (ads[adID].sold == false);\n\n    ads[adID] = Ad({\n      adCount: adCount,\n      price: price,\n      expires: block.timestamp + (_expires * 1 days),\n      message: _message,\n      url : _url,\n      buyer : msg.sender,\n      sold : true\n    });\n\n    return ads[adID].message;\n  }\n  \n  function showAd(uint adID) public view returns(string memory) {\n    return ads[adID].message;\n  }\n  \n  function getPrice() public view returns(uint) {\n    return price;\n  }\n\n  function changePrice(uint newPrice) external onlyOwner {\n    price = newPrice;\n  }\n\n  // function getBuyer(uint number) public view returns(address) {\n  //   return buyers[number];\n  // }\n\n//Remove an adSpace message and replace with default.\n  function closeAd(uint adID) public verifyBuyer(adID, msg.sender) {\n    ads[adID].message = \"\";\n    ads[adID].buyer = address(0);\n    ads[adID].sold = false;\n\n    refund();\n  }\n\n//Refund customer with the unused eth balance after closing the adSpace\n  function refund() public {\n\n  }\n\n\n//Enable contract to receive money\n  receive() external payable {}\n\n//Fallback function is called when msg.data is not empty\n  fallback() external payable {}\n\n//Check money accured in the contract\n  function getBalance() public view returns (uint) {\n        return address(this).balance;\n  }\n\n//Withdraw money accured in the contract to owner of contract\n  function withdrawAll() external onlyOwner {\n    (bool sent, bytes memory data) = owner().call{value: getBalance()}(\"\");\n    require(sent, \"Failed to send Ether\");\n  }\n}\n",
  "sourcePath": "/home/scookie/github/blockchain-developer-bootcamp-final-project/contracts/MyContract.sol",
  "compiler": {
    "name": "solc",
    "version": "0.8.10+commit.fc410830.Emscripten.clang"
  },
  "schemaVersion": "3.4.3",
  "updatedAt": "2021-11-24T03:16:33.678Z",
  "networkType": "ethereum",
  "devdoc": {
    "kind": "dev",
    "methods": {
      "owner()": {
        "details": "Returns the address of the current owner."
      },
      "renounceOwnership()": {
        "details": "Leaves the contract without owner. It will not be possible to call `onlyOwner` functions anymore. Can only be called by the current owner. NOTE: Renouncing ownership will leave the contract without an owner, thereby removing any functionality that is only available to the owner."
      },
      "transferOwnership(address)": {
        "details": "Transfers ownership of the contract to a new account (`newOwner`). Can only be called by the current owner."
      }
    },
    "version": 1
  },
  "userdoc": {
    "kind": "user",
    "methods": {},
    "version": 1
  }
}