{
  "contractName": "MyContract",
  "abi": [
    {
      "anonymous": false,
      "inputs": [
        {
          "indexed": true,
          "internalType": "address",
          "name": "previousOwner",
          "type": "address"
        },
        {
          "indexed": true,
          "internalType": "address",
          "name": "newOwner",
          "type": "address"
        }
      ],
      "name": "OwnershipTransferred",
      "type": "event"
    },
    {
      "stateMutability": "payable",
      "type": "fallback",
      "payable": true
    },
    {
      "inputs": [
        {
          "internalType": "uint256",
          "name": "",
          "type": "uint256"
        }
      ],
      "name": "buyers",
      "outputs": [
        {
          "internalType": "address",
          "name": "",
          "type": "address"
        }
      ],
      "stateMutability": "view",
      "type": "function",
      "constant": true
    },
    {
      "inputs": [],
      "name": "owner",
      "outputs": [
        {
          "internalType": "address",
          "name": "",
          "type": "address"
        }
      ],
      "stateMutability": "view",
      "type": "function",
      "constant": true
    },
    {
      "inputs": [],
      "name": "renounceOwnership",
      "outputs": [],
      "stateMutability": "nonpayable",
      "type": "function"
    },
    {
      "inputs": [
        {
          "internalType": "address",
          "name": "newOwner",
          "type": "address"
        }
      ],
      "name": "transferOwnership",
      "outputs": [],
      "stateMutability": "nonpayable",
      "type": "function"
    },
    {
      "stateMutability": "payable",
      "type": "receive",
      "payable": true
    },
    {
      "inputs": [
        {
          "internalType": "uint256",
          "name": "adID",
          "type": "uint256"
        },
        {
          "internalType": "string",
          "name": "message",
          "type": "string"
        }
      ],
      "name": "buyAd",
      "outputs": [
        {
          "internalType": "string",
          "name": "",
          "type": "string"
        }
      ],
      "stateMutability": "payable",
      "type": "function",
      "payable": true
    },
    {
      "inputs": [
        {
          "internalType": "uint256",
          "name": "adID",
          "type": "uint256"
        }
      ],
      "name": "showAd",
      "outputs": [
        {
          "internalType": "string",
          "name": "",
          "type": "string"
        }
      ],
      "stateMutability": "view",
      "type": "function",
      "constant": true
    },
    {
      "inputs": [],
      "name": "getPrice",
      "outputs": [
        {
          "internalType": "uint256",
          "name": "",
          "type": "uint256"
        }
      ],
      "stateMutability": "view",
      "type": "function",
      "constant": true
    },
    {
      "inputs": [
        {
          "internalType": "uint256",
          "name": "number",
          "type": "uint256"
        }
      ],
      "name": "getBuyer",
      "outputs": [
        {
          "internalType": "address",
          "name": "",
          "type": "address"
        }
      ],
      "stateMutability": "view",
      "type": "function",
      "constant": true
    },
    {
      "inputs": [
        {
          "internalType": "uint256",
          "name": "adID",
          "type": "uint256"
        }
      ],
      "name": "closeAd",
      "outputs": [],
      "stateMutability": "nonpayable",
      "type": "function"
    },
    {
      "inputs": [],
      "name": "refund",
      "outputs": [],
      "stateMutability": "nonpayable",
      "type": "function"
    },
    {
      "inputs": [],
      "name": "getBalance",
      "outputs": [
        {
          "internalType": "uint256",
          "name": "",
          "type": "uint256"
        }
      ],
      "stateMutability": "view",
      "type": "function",
      "constant": true
    },
    {
      "inputs": [],
      "name": "withdrawAll",
      "outputs": [],
      "stateMutability": "nonpayable",
      "type": "function"
    }
  ],
  "bytecode": "0x60806040526003600155662386f26fc1000060075534801561002057600080fd5b5061003d61003261004260201b60201c565b61004a60201b60201c565b61010e565b600033905090565b60008060009054906101000a900473ffffffffffffffffffffffffffffffffffffffff169050816000806101000a81548173ffffffffffffffffffffffffffffffffffffffff021916908373ffffffffffffffffffffffffffffffffffffffff1602179055508173ffffffffffffffffffffffffffffffffffffffff168173ffffffffffffffffffffffffffffffffffffffff167f8be0079c531659141344cd1fd0a4f28419497f9722a3daafe3b4186f6b6457e060405160405180910390a35050565b6110788061011d6000396000f3fe6080604052600436106100ab5760003560e01c80637df9364a116100645780637df9364a146101a3578063853828b6146101e05780638da5cb5b146101f757806398d5fdca14610222578063f2aa82181461024d578063f2fde38b1461028a576100b2565b806303ceb031146100b4578063111870d9146100e457806312065fe01461010d578063590e1ae3146101385780635bf608b81461014f578063715018a61461018c576100b2565b366100b257005b005b6100ce60048036038101906100c99190610bf0565b6102b3565b6040516100db9190610cd4565b60405180910390f35b3480156100f057600080fd5b5061010b60048036038101906101069190610cf6565b61044d565b005b34801561011957600080fd5b506101226104c1565b60405161012f9190610d32565b60405180910390f35b34801561014457600080fd5b5061014d6104c9565b005b34801561015b57600080fd5b5061017660048036038101906101719190610cf6565b6104cb565b6040516101839190610d8e565b60405180910390f35b34801561019857600080fd5b506101a161050a565b005b3480156101af57600080fd5b506101ca60048036038101906101c59190610cf6565b610592565b6040516101d79190610cd4565b60405180910390f35b3480156101ec57600080fd5b506101f5610654565b005b34801561020357600080fd5b5061020c610790565b6040516102199190610d8e565b60405180910390f35b34801561022e57600080fd5b506102376107b9565b6040516102449190610d32565b60405180910390f35b34801561025957600080fd5b50610274600480360381019061026f9190610cf6565b6107c3565b6040516102819190610d8e565b60405180910390f35b34801561029657600080fd5b506102b160048036038101906102ac9190610dd5565b6107f9565b005b6060600754341015806103075750600754600660003373ffffffffffffffffffffffffffffffffffffffff1673ffffffffffffffffffffffffffffffffffffffff1681526020019081526020016000205410155b61031057600080fd5b8260008110158015610323575060015481105b61032c57600080fd5b336002856003811061034157610340610e02565b5b0160006101000a81548173ffffffffffffffffffffffffffffffffffffffff021916908373ffffffffffffffffffffffffffffffffffffffff160217905550826005600086815260200190815260200160002090805190602001906103a79291906109bd565b506005600085815260200190815260200160002080546103c690610e60565b80601f01602080910402602001604051908101604052809291908181526020018280546103f290610e60565b801561043f5780601f106104145761010080835404028352916020019161043f565b820191906000526020600020905b81548152906001019060200180831161042257829003601f168201915b505050505091505092915050565b80336002826003811061046357610462610e02565b5b0160009054906101000a900473ffffffffffffffffffffffffffffffffffffffff1673ffffffffffffffffffffffffffffffffffffffff163373ffffffffffffffffffffffffffffffffffffffff16146104bc57600080fd5b505050565b600047905090565b565b6000600282600381106104e1576104e0610e02565b5b0160009054906101000a900473ffffffffffffffffffffffffffffffffffffffff169050919050565b6105126108f1565b73ffffffffffffffffffffffffffffffffffffffff16610530610790565b73ffffffffffffffffffffffffffffffffffffffff1614610586576040517f08c379a000000000000000000000000000000000000000000000000000000000815260040161057d90610ede565b60405180910390fd5b61059060006108f9565b565b606081600081101580156105a7575060015481105b6105b057600080fd5b6005600084815260200190815260200160002080546105ce90610e60565b80601f01602080910402602001604051908101604052809291908181526020018280546105fa90610e60565b80156106475780601f1061061c57610100808354040283529160200191610647565b820191906000526020600020905b81548152906001019060200180831161062a57829003601f168201915b5050505050915050919050565b61065c6108f1565b73ffffffffffffffffffffffffffffffffffffffff1661067a610790565b73ffffffffffffffffffffffffffffffffffffffff16146106d0576040517f08c379a00000000000000000000000000000000000000000000000000000000081526004016106c790610ede565b60405180910390fd5b6000806106db610790565b73ffffffffffffffffffffffffffffffffffffffff166106f96104c1565b60405161070590610f2f565b60006040518083038185875af1925050503d8060008114610742576040519150601f19603f3d011682016040523d82523d6000602084013e610747565b606091505b50915091508161078c576040517f08c379a000000000000000000000000000000000000000000000000000000000815260040161078390610f90565b60405180910390fd5b5050565b60008060009054906101000a900473ffffffffffffffffffffffffffffffffffffffff16905090565b6000600754905090565b600281600381106107d357600080fd5b016000915054906101000a900473ffffffffffffffffffffffffffffffffffffffff1681565b6108016108f1565b73ffffffffffffffffffffffffffffffffffffffff1661081f610790565b73ffffffffffffffffffffffffffffffffffffffff1614610875576040517f08c379a000000000000000000000000000000000000000000000000000000000815260040161086c90610ede565b60405180910390fd5b600073ffffffffffffffffffffffffffffffffffffffff168173ffffffffffffffffffffffffffffffffffffffff1614156108e5576040517f08c379a00000000000000000000000000000000000000000000000000000000081526004016108dc90611022565b60405180910390fd5b6108ee816108f9565b50565b600033905090565b60008060009054906101000a900473ffffffffffffffffffffffffffffffffffffffff169050816000806101000a81548173ffffffffffffffffffffffffffffffffffffffff021916908373ffffffffffffffffffffffffffffffffffffffff1602179055508173ffffffffffffffffffffffffffffffffffffffff168173ffffffffffffffffffffffffffffffffffffffff167f8be0079c531659141344cd1fd0a4f28419497f9722a3daafe3b4186f6b6457e060405160405180910390a35050565b8280546109c990610e60565b90600052602060002090601f0160209004810192826109eb5760008555610a32565b82601f10610a0457805160ff1916838001178555610a32565b82800160010185558215610a32579182015b82811115610a31578251825591602001919060010190610a16565b5b509050610a3f9190610a43565b5090565b5b80821115610a5c576000816000905550600101610a44565b5090565b6000604051905090565b600080fd5b600080fd5b6000819050919050565b610a8781610a74565b8114610a9257600080fd5b50565b600081359050610aa481610a7e565b92915050565b600080fd5b600080fd5b6000601f19601f8301169050919050565b7f4e487b7100000000000000000000000000000000000000000000000000000000600052604160045260246000fd5b610afd82610ab4565b810181811067ffffffffffffffff82111715610b1c57610b1b610ac5565b5b80604052505050565b6000610b2f610a60565b9050610b3b8282610af4565b919050565b600067ffffffffffffffff821115610b5b57610b5a610ac5565b5b610b6482610ab4565b9050602081019050919050565b82818337600083830152505050565b6000610b93610b8e84610b40565b610b25565b905082815260208101848484011115610baf57610bae610aaf565b5b610bba848285610b71565b509392505050565b600082601f830112610bd757610bd6610aaa565b5b8135610be7848260208601610b80565b91505092915050565b60008060408385031215610c0757610c06610a6a565b5b6000610c1585828601610a95565b925050602083013567ffffffffffffffff811115610c3657610c35610a6f565b5b610c4285828601610bc2565b9150509250929050565b600081519050919050565b600082825260208201905092915050565b60005b83811015610c86578082015181840152602081019050610c6b565b83811115610c95576000848401525b50505050565b6000610ca682610c4c565b610cb08185610c57565b9350610cc0818560208601610c68565b610cc981610ab4565b840191505092915050565b60006020820190508181036000830152610cee8184610c9b565b905092915050565b600060208284031215610d0c57610d0b610a6a565b5b6000610d1a84828501610a95565b91505092915050565b610d2c81610a74565b82525050565b6000602082019050610d476000830184610d23565b92915050565b600073ffffffffffffffffffffffffffffffffffffffff82169050919050565b6000610d7882610d4d565b9050919050565b610d8881610d6d565b82525050565b6000602082019050610da36000830184610d7f565b92915050565b610db281610d6d565b8114610dbd57600080fd5b50565b600081359050610dcf81610da9565b92915050565b600060208284031215610deb57610dea610a6a565b5b6000610df984828501610dc0565b91505092915050565b7f4e487b7100000000000000000000000000000000000000000000000000000000600052603260045260246000fd5b7f4e487b7100000000000000000000000000000000000000000000000000000000600052602260045260246000fd5b60006002820490506001821680610e7857607f821691505b60208210811415610e8c57610e8b610e31565b5b50919050565b7f4f776e61626c653a2063616c6c6572206973206e6f7420746865206f776e6572600082015250565b6000610ec8602083610c57565b9150610ed382610e92565b602082019050919050565b60006020820190508181036000830152610ef781610ebb565b9050919050565b600081905092915050565b50565b6000610f19600083610efe565b9150610f2482610f09565b600082019050919050565b6000610f3a82610f0c565b9150819050919050565b7f4661696c656420746f2073656e64204574686572000000000000000000000000600082015250565b6000610f7a601483610c57565b9150610f8582610f44565b602082019050919050565b60006020820190508181036000830152610fa981610f6d565b9050919050565b7f4f776e61626c653a206e6577206f776e657220697320746865207a65726f206160008201527f6464726573730000000000000000000000000000000000000000000000000000602082015250565b600061100c602683610c57565b915061101782610fb0565b604082019050919050565b6000602082019050818103600083015261103b81610fff565b905091905056fea26469706673582212205bfc236fa756825c66e3c142d34467e8db599ca6db2a296d6abe6d8fca9c946964736f6c634300080a0033",
  "immutableReferences": {},
  "source": "// SPDX-License-Identifier: MIT\npragma solidity >=0.8.0;\nimport \"@openzeppelin/contracts/access/Ownable.sol\";\n//import \"hardhat/console.sol\";\n\ncontract MyContract is Ownable{\n\n//Determine how many adSpots are available;\n  uint spots = 3;\n\n//all buyers who get to close their adSpace and get a refund\n  address[3] public buyers;\n\n//all avaialble ad spaces\n  mapping (uint => string) adSpaces;\n\n//Buyer's balance\n  mapping (address => uint) balances;\n\n//Price of a single adSpace;\n  uint price = 1e16; //0.1 ether\n  \n\n//Verify it's the owner who's calling the contract\n  modifier verifyBuyer (uint adID, address _address) {\n    require(msg.sender == buyers[adID]);\n    _;\n  }\n\n//Verify buyer paid enough for the adSpace or have enough balance in their account;\n  modifier verifyAmount() {\n    require(msg.value >= price || balances[msg.sender] >= price);\n    _;\n  }\n\n//Verify the adID exists within range\n  modifier verifyExists(uint adID) {\n    require (adID >= 0 && adID < spots);\n    _;\n  }\n\n//Pick an adSpace # from the mapping and input a message to be displayed on the website\n  function buyAd(uint adID, string memory message) public payable verifyAmount verifyExists(adID) returns(string memory) {\n\n    buyers[adID] = msg.sender;\n    adSpaces[adID] = message;\n    return adSpaces[adID];\n  }\n\n  function showAd(uint adID) public view verifyExists(adID) returns(string memory) {\n    return adSpaces[adID];\n  }\n\n  function getPrice() public view returns(uint) {\n    return price;\n  }\n\n  function getBuyer(uint number) public view returns(address) {\n    return buyers[number];\n  }\n\n//Remove an adSpace message and replace with default.\n  function closeAd(uint adID) public verifyBuyer(adID, msg.sender) {\n//    console.log(5);\n  }\n\n//Refund customer with the unused eth balance after closing the adSpace\n  function refund() public {\n\n  }\n\n\n//Enable contract to receive money\n  receive() external payable {}\n\n//Fallback function is called when msg.data is not empty\n  fallback() external payable {}\n\n//Check money accured in the contract\n  function getBalance() public view returns (uint) {\n        return address(this).balance;\n  }\n\n//Withdraw money accured in the contract to owner of contract\n  function withdrawAll() external onlyOwner {\n    (bool sent, bytes memory data) = owner().call{value: getBalance()}(\"\");\n    require(sent, \"Failed to send Ether\");\n  }\n}\n",
  "sourcePath": "/home/scookie/github/blockchain-developer-bootcamp-final-project/contracts/MyContract.sol",
  "compiler": {
    "name": "solc",
    "version": "0.8.10+commit.fc410830.Emscripten.clang"
  },
  "schemaVersion": "3.4.3",
  "updatedAt": "2021-11-15T16:10:45.625Z",
  "networkType": "ethereum",
  "devdoc": {
    "kind": "dev",
    "methods": {
      "owner()": {
        "details": "Returns the address of the current owner."
      },
      "renounceOwnership()": {
        "details": "Leaves the contract without owner. It will not be possible to call `onlyOwner` functions anymore. Can only be called by the current owner. NOTE: Renouncing ownership will leave the contract without an owner, thereby removing any functionality that is only available to the owner."
      },
      "transferOwnership(address)": {
        "details": "Transfers ownership of the contract to a new account (`newOwner`). Can only be called by the current owner."
      }
    },
    "version": 1
  },
  "userdoc": {
    "kind": "user",
    "methods": {},
    "version": 1
  }
}