{
  "contractName": "MyContract",
  "abi": [
    {
      "anonymous": false,
      "inputs": [
        {
          "indexed": true,
          "internalType": "address",
          "name": "previousOwner",
          "type": "address"
        },
        {
          "indexed": true,
          "internalType": "address",
          "name": "newOwner",
          "type": "address"
        }
      ],
      "name": "OwnershipTransferred",
      "type": "event"
    },
    {
      "stateMutability": "payable",
      "type": "fallback",
      "payable": true
    },
    {
      "inputs": [
        {
          "internalType": "uint256",
          "name": "",
          "type": "uint256"
        }
      ],
      "name": "ads",
      "outputs": [
        {
          "internalType": "uint256",
          "name": "adCount",
          "type": "uint256"
        },
        {
          "internalType": "uint256",
          "name": "price",
          "type": "uint256"
        },
        {
          "internalType": "uint256",
          "name": "expires",
          "type": "uint256"
        },
        {
          "internalType": "string",
          "name": "message",
          "type": "string"
        },
        {
          "internalType": "string",
          "name": "url",
          "type": "string"
        },
        {
          "internalType": "address",
          "name": "buyer",
          "type": "address"
        },
        {
          "internalType": "bool",
          "name": "sold",
          "type": "bool"
        }
      ],
      "stateMutability": "view",
      "type": "function",
      "constant": true
    },
    {
      "inputs": [],
      "name": "owner",
      "outputs": [
        {
          "internalType": "address",
          "name": "",
          "type": "address"
        }
      ],
      "stateMutability": "view",
      "type": "function",
      "constant": true
    },
    {
      "inputs": [],
      "name": "renounceOwnership",
      "outputs": [],
      "stateMutability": "nonpayable",
      "type": "function"
    },
    {
      "inputs": [
        {
          "internalType": "address",
          "name": "newOwner",
          "type": "address"
        }
      ],
      "name": "transferOwnership",
      "outputs": [],
      "stateMutability": "nonpayable",
      "type": "function"
    },
    {
      "stateMutability": "payable",
      "type": "receive",
      "payable": true
    },
    {
      "inputs": [
        {
          "internalType": "uint256",
          "name": "adID",
          "type": "uint256"
        },
        {
          "internalType": "uint256",
          "name": "_expires",
          "type": "uint256"
        },
        {
          "internalType": "string",
          "name": "_message",
          "type": "string"
        },
        {
          "internalType": "string",
          "name": "_url",
          "type": "string"
        }
      ],
      "name": "buyAd",
      "outputs": [
        {
          "internalType": "string",
          "name": "",
          "type": "string"
        }
      ],
      "stateMutability": "payable",
      "type": "function",
      "payable": true
    },
    {
      "inputs": [
        {
          "internalType": "uint256",
          "name": "adID",
          "type": "uint256"
        }
      ],
      "name": "showAd",
      "outputs": [
        {
          "internalType": "string",
          "name": "",
          "type": "string"
        }
      ],
      "stateMutability": "view",
      "type": "function",
      "constant": true
    },
    {
      "inputs": [
        {
          "internalType": "uint256",
          "name": "adID",
          "type": "uint256"
        }
      ],
      "name": "showAdUrl",
      "outputs": [
        {
          "internalType": "string",
          "name": "",
          "type": "string"
        }
      ],
      "stateMutability": "view",
      "type": "function",
      "constant": true
    },
    {
      "inputs": [],
      "name": "getPrice",
      "outputs": [
        {
          "internalType": "uint256",
          "name": "",
          "type": "uint256"
        }
      ],
      "stateMutability": "view",
      "type": "function",
      "constant": true
    },
    {
      "inputs": [
        {
          "internalType": "uint256",
          "name": "newPrice",
          "type": "uint256"
        }
      ],
      "name": "changePrice",
      "outputs": [],
      "stateMutability": "nonpayable",
      "type": "function"
    },
    {
      "inputs": [
        {
          "internalType": "uint256",
          "name": "adID",
          "type": "uint256"
        }
      ],
      "name": "getBuyer",
      "outputs": [
        {
          "internalType": "address",
          "name": "",
          "type": "address"
        }
      ],
      "stateMutability": "view",
      "type": "function",
      "constant": true
    },
    {
      "inputs": [
        {
          "internalType": "uint256",
          "name": "adID",
          "type": "uint256"
        }
      ],
      "name": "closeAd",
      "outputs": [],
      "stateMutability": "nonpayable",
      "type": "function"
    },
    {
      "inputs": [],
      "name": "getAdCount",
      "outputs": [
        {
          "internalType": "uint256",
          "name": "",
          "type": "uint256"
        }
      ],
      "stateMutability": "view",
      "type": "function",
      "constant": true
    },
    {
      "inputs": [],
      "name": "refund",
      "outputs": [],
      "stateMutability": "nonpayable",
      "type": "function"
    },
    {
      "inputs": [],
      "name": "getBalance",
      "outputs": [
        {
          "internalType": "uint256",
          "name": "",
          "type": "uint256"
        }
      ],
      "stateMutability": "view",
      "type": "function",
      "constant": true
    },
    {
      "inputs": [],
      "name": "withdrawAll",
      "outputs": [],
      "stateMutability": "nonpayable",
      "type": "function"
    }
  ],
  "bytecode": "0x6080604052600360015560006002556509184e72a00060055534801561002457600080fd5b5061004161003661004660201b60201c565b61004e60201b60201c565b610112565b600033905090565b60008060009054906101000a900473ffffffffffffffffffffffffffffffffffffffff169050816000806101000a81548173ffffffffffffffffffffffffffffffffffffffff021916908373ffffffffffffffffffffffffffffffffffffffff1602179055508173ffffffffffffffffffffffffffffffffffffffff168173ffffffffffffffffffffffffffffffffffffffff167f8be0079c531659141344cd1fd0a4f28419497f9722a3daafe3b4186f6b6457e060405160405180910390a35050565b611653806101216000396000f3fe6080604052600436106100ec5760003560e01c80637df9364a1161008a57806398d5fdca1161005957806398d5fdca146102de578063a2b40d1914610309578063edfef7ca14610332578063f2fde38b14610362576100f3565b80637df9364a14610234578063800a7e4514610271578063853828b61461029c5780638da5cb5b146102b3576100f3565b8063590e1ae3116100c6578063590e1ae31461018c5780635bf608b8146101a3578063715018a6146101e05780637a1bd8d1146101f7576100f3565b8063111870d9146100f557806311a7a4c01461011e57806312065fe014610161576100f3565b366100f357005b005b34801561010157600080fd5b5061011c60048036038101906101179190610fa8565b61038b565b005b34801561012a57600080fd5b5061014560048036038101906101409190610fa8565b6104c7565b6040516101589796959493929190611297565b60405180910390f35b34801561016d57600080fd5b50610176610646565b604051610183919061127c565b60405180910390f35b34801561019857600080fd5b506101a161064e565b005b3480156101af57600080fd5b506101ca60048036038101906101c59190610fa8565b610650565b6040516101d791906111df565b60405180910390f35b3480156101ec57600080fd5b506101f5610690565b005b34801561020357600080fd5b5061021e60048036038101906102199190610fa8565b610718565b60405161022b91906111fa565b60405180910390f35b34801561024057600080fd5b5061025b60048036038101906102569190610fa8565b6107c0565b60405161026891906111fa565b60405180910390f35b34801561027d57600080fd5b50610286610868565b604051610293919061127c565b60405180910390f35b3480156102a857600080fd5b506102b1610872565b005b3480156102bf57600080fd5b506102c86109ae565b6040516102d591906111df565b60405180910390f35b3480156102ea57600080fd5b506102f36109d7565b604051610300919061127c565b60405180910390f35b34801561031557600080fd5b50610330600480360381019061032b9190610fa8565b6109e1565b005b61034c60048036038101906103479190610fd1565b610a67565b60405161035991906111fa565b60405180910390f35b34801561036e57600080fd5b5061038960048036038101906103849190610f7f565b610c86565b005b80336003600083815260200190815260200160002060050160009054906101000a900473ffffffffffffffffffffffffffffffffffffffff1673ffffffffffffffffffffffffffffffffffffffff168173ffffffffffffffffffffffffffffffffffffffff16146103fb57600080fd5b60405180602001604052806000815250600360008581526020019081526020016000206003019080519060200190610434929190610e4a565b5060006003600085815260200190815260200160002060050160006101000a81548173ffffffffffffffffffffffffffffffffffffffff021916908373ffffffffffffffffffffffffffffffffffffffff16021790555060006003600085815260200190815260200160002060050160146101000a81548160ff0219169083151502179055506104c261064e565b505050565b60036020528060005260406000206000915090508060000154908060010154908060020154908060030180546104fc906114d6565b80601f0160208091040260200160405190810160405280929190818152602001828054610528906114d6565b80156105755780601f1061054a57610100808354040283529160200191610575565b820191906000526020600020905b81548152906001019060200180831161055857829003601f168201915b50505050509080600401805461058a906114d6565b80601f01602080910402602001604051908101604052809291908181526020018280546105b6906114d6565b80156106035780601f106105d857610100808354040283529160200191610603565b820191906000526020600020905b8154815290600101906020018083116105e657829003601f168201915b5050505050908060050160009054906101000a900473ffffffffffffffffffffffffffffffffffffffff16908060050160149054906101000a900460ff16905087565b600047905090565b565b60006003600083815260200190815260200160002060050160009054906101000a900473ffffffffffffffffffffffffffffffffffffffff169050919050565b610698610d7e565b73ffffffffffffffffffffffffffffffffffffffff166106b66109ae565b73ffffffffffffffffffffffffffffffffffffffff161461070c576040517f08c379a00000000000000000000000000000000000000000000000000000000081526004016107039061125c565b60405180910390fd5b6107166000610d86565b565b606060036000838152602001908152602001600020600401805461073b906114d6565b80601f0160208091040260200160405190810160405280929190818152602001828054610767906114d6565b80156107b45780601f10610789576101008083540402835291602001916107b4565b820191906000526020600020905b81548152906001019060200180831161079757829003601f168201915b50505050509050919050565b60606003600083815260200190815260200160002060030180546107e3906114d6565b80601f016020809104026020016040519081016040528092919081815260200182805461080f906114d6565b801561085c5780601f106108315761010080835404028352916020019161085c565b820191906000526020600020905b81548152906001019060200180831161083f57829003601f168201915b50505050509050919050565b6000600254905090565b61087a610d7e565b73ffffffffffffffffffffffffffffffffffffffff166108986109ae565b73ffffffffffffffffffffffffffffffffffffffff16146108ee576040517f08c379a00000000000000000000000000000000000000000000000000000000081526004016108e59061125c565b60405180910390fd5b6000806108f96109ae565b73ffffffffffffffffffffffffffffffffffffffff16610917610646565b604051610923906111ca565b60006040518083038185875af1925050503d8060008114610960576040519150601f19603f3d011682016040523d82523d6000602084013e610965565b606091505b5091509150816109aa576040517f08c379a00000000000000000000000000000000000000000000000000000000081526004016109a19061123c565b60405180910390fd5b5050565b60008060009054906101000a900473ffffffffffffffffffffffffffffffffffffffff16905090565b6000600554905090565b6109e9610d7e565b73ffffffffffffffffffffffffffffffffffffffff16610a076109ae565b73ffffffffffffffffffffffffffffffffffffffff1614610a5d576040517f08c379a0000000000000000000000000000000000000000000000000000000008152600401610a549061125c565b60405180910390fd5b8060058190555050565b6060848480600554610a7991906113f2565b341015610a8557600080fd5b6040518060e00160405280600254815260200160055481526020016201518088610aaf91906113f2565b42610aba919061139c565b81526020018681526020018581526020013373ffffffffffffffffffffffffffffffffffffffff16815260200160011515815250600360008981526020019081526020016000206000820151816000015560208201518160010155604082015181600201556060820151816003019080519060200190610b3b929190610e4a565b506080820151816004019080519060200190610b58929190610e4a565b5060a08201518160050160006101000a81548173ffffffffffffffffffffffffffffffffffffffff021916908373ffffffffffffffffffffffffffffffffffffffff16021790555060c08201518160050160146101000a81548160ff02191690831515021790555090505060026000815480929190610bd690611508565b9190505550600360008881526020019081526020016000206003018054610bfc906114d6565b80601f0160208091040260200160405190810160405280929190818152602001828054610c28906114d6565b8015610c755780601f10610c4a57610100808354040283529160200191610c75565b820191906000526020600020905b815481529060010190602001808311610c5857829003601f168201915b505050505092505050949350505050565b610c8e610d7e565b73ffffffffffffffffffffffffffffffffffffffff16610cac6109ae565b73ffffffffffffffffffffffffffffffffffffffff1614610d02576040517f08c379a0000000000000000000000000000000000000000000000000000000008152600401610cf99061125c565b60405180910390fd5b600073ffffffffffffffffffffffffffffffffffffffff168173ffffffffffffffffffffffffffffffffffffffff161415610d72576040517f08c379a0000000000000000000000000000000000000000000000000000000008152600401610d699061121c565b60405180910390fd5b610d7b81610d86565b50565b600033905090565b60008060009054906101000a900473ffffffffffffffffffffffffffffffffffffffff169050816000806101000a81548173ffffffffffffffffffffffffffffffffffffffff021916908373ffffffffffffffffffffffffffffffffffffffff1602179055508173ffffffffffffffffffffffffffffffffffffffff168173ffffffffffffffffffffffffffffffffffffffff167f8be0079c531659141344cd1fd0a4f28419497f9722a3daafe3b4186f6b6457e060405160405180910390a35050565b828054610e56906114d6565b90600052602060002090601f016020900481019282610e785760008555610ebf565b82601f10610e9157805160ff1916838001178555610ebf565b82800160010185558215610ebf579182015b82811115610ebe578251825591602001919060010190610ea3565b5b509050610ecc9190610ed0565b5090565b5b80821115610ee9576000816000905550600101610ed1565b5090565b6000610f00610efb84611345565b611314565b905082815260208101848484011115610f1857600080fd5b610f23848285611494565b509392505050565b600081359050610f3a816115ef565b92915050565b600082601f830112610f5157600080fd5b8135610f61848260208601610eed565b91505092915050565b600081359050610f7981611606565b92915050565b600060208284031215610f9157600080fd5b6000610f9f84828501610f2b565b91505092915050565b600060208284031215610fba57600080fd5b6000610fc884828501610f6a565b91505092915050565b60008060008060808587031215610fe757600080fd5b6000610ff587828801610f6a565b945050602061100687828801610f6a565b935050604085013567ffffffffffffffff81111561102357600080fd5b61102f87828801610f40565b925050606085013567ffffffffffffffff81111561104c57600080fd5b61105887828801610f40565b91505092959194509250565b61106d8161144c565b82525050565b61107c8161145e565b82525050565b600061108d82611375565b611097818561138b565b93506110a78185602086016114a3565b6110b0816115de565b840191505092915050565b60006110c860268361138b565b91507f4f776e61626c653a206e6577206f776e657220697320746865207a65726f206160008301527f64647265737300000000000000000000000000000000000000000000000000006020830152604082019050919050565b600061112e60148361138b565b91507f4661696c656420746f2073656e642045746865720000000000000000000000006000830152602082019050919050565b600061116e60208361138b565b91507f4f776e61626c653a2063616c6c6572206973206e6f7420746865206f776e65726000830152602082019050919050565b60006111ae600083611380565b9150600082019050919050565b6111c48161148a565b82525050565b60006111d5826111a1565b9150819050919050565b60006020820190506111f46000830184611064565b92915050565b600060208201905081810360008301526112148184611082565b905092915050565b60006020820190508181036000830152611235816110bb565b9050919050565b6000602082019050818103600083015261125581611121565b9050919050565b6000602082019050818103600083015261127581611161565b9050919050565b600060208201905061129160008301846111bb565b92915050565b600060e0820190506112ac600083018a6111bb565b6112b960208301896111bb565b6112c660408301886111bb565b81810360608301526112d88187611082565b905081810360808301526112ec8186611082565b90506112fb60a0830185611064565b61130860c0830184611073565b98975050505050505050565b6000604051905081810181811067ffffffffffffffff8211171561133b5761133a6115af565b5b8060405250919050565b600067ffffffffffffffff8211156113605761135f6115af565b5b601f19601f8301169050602081019050919050565b600081519050919050565b600081905092915050565b600082825260208201905092915050565b60006113a78261148a565b91506113b28361148a565b9250827fffffffffffffffffffffffffffffffffffffffffffffffffffffffffffffffff038211156113e7576113e6611551565b5b828201905092915050565b60006113fd8261148a565b91506114088361148a565b9250817fffffffffffffffffffffffffffffffffffffffffffffffffffffffffffffffff048311821515161561144157611440611551565b5b828202905092915050565b60006114578261146a565b9050919050565b60008115159050919050565b600073ffffffffffffffffffffffffffffffffffffffff82169050919050565b6000819050919050565b82818337600083830152505050565b60005b838110156114c15780820151818401526020810190506114a6565b838111156114d0576000848401525b50505050565b600060028204905060018216806114ee57607f821691505b6020821081141561150257611501611580565b5b50919050565b60006115138261148a565b91507fffffffffffffffffffffffffffffffffffffffffffffffffffffffffffffffff82141561154657611545611551565b5b600182019050919050565b7f4e487b7100000000000000000000000000000000000000000000000000000000600052601160045260246000fd5b7f4e487b7100000000000000000000000000000000000000000000000000000000600052602260045260246000fd5b7f4e487b7100000000000000000000000000000000000000000000000000000000600052604160045260246000fd5b6000601f19601f8301169050919050565b6115f88161144c565b811461160357600080fd5b50565b61160f8161148a565b811461161a57600080fd5b5056fea26469706673582212204f8393855a1c40da4985dbb8a27ddfbbb1d18516bc60274ca6a8dbff3fd61bcb64736f6c63430008000033",
  "immutableReferences": {},
  "source": "/// SPDX-License-Identifier: MIT\npragma solidity =0.8.0;\n\nimport \"@openzeppelin/contracts/access/Ownable.sol\";\n\n/// @title Garyslist\n/// @author Gary Ghayrat\n/// @notice Simple way to store texts on Ethereum \n/// @dev All function calls are currently implemented without side effects\ncontract MyContract is Ownable {\n\n/// @dev Determine how many adSpots are available;\n  uint spots = 3;\n  uint AdCount = 0;\n\n/// @dev To be implemented: all buyers who get to close their adSpace and get a refund\n\n/// @dev All avaialble ad spaces\n  mapping (uint => Ad) public ads;\n\n/// @dev Ad specifications\n\n  struct Ad {\n    uint adCount;\n    uint price;\n    uint expires;\n    string message;\n    string url;\n    address buyer;\n    bool sold;\n  }\n\n/// @dev Buyer's balance, currently not used\n  mapping (address => uint) balances;\n\n/// @dev Price of a single adSpace;\n  uint price = 1e13; //0.0001 ether\n  \n\n/// @dev Verify it's the owner of an ad that's trying to call the contract;\n/// @param adID unique ID for each message\n/// @param _address address of the owner of a message\n  modifier verifyBuyer (uint adID, address _address) {\n    require(_address == ads[adID].buyer);\n    _;\n  }\n\n/// @dev Verify buyer paid enough for the adSpace or have enough balance in their account;\n/// @param expires number of days the buyer paid to keep the message up\n  modifier verifyAmount(uint adID, uint expires) {\n    require(msg.value >= price*expires);\n    _;\n  }\n\n/// @dev Verify the adID exists within range\n  modifier verifyExists(uint adID) {\n    require (adID >= 0 && adID < spots);\n    _;\n  }\n\n/// @dev Pick an adSpace # from the mapping and input a message to be displayed on the website\n  function buyAd(uint adID, uint _expires, string memory _message, string memory _url) public payable verifyAmount(adID, _expires) returns(string memory) {\n    /// @dev Need to initialize sold status to be able to use: require (ads[adID].sold == false);\n\n    ads[adID] = Ad({\n      adCount: AdCount,\n      price: price,\n      expires: block.timestamp + (_expires * 1 days),\n      message: _message,\n      url : _url,\n      buyer : msg.sender,\n      sold : true\n    });\n\n    AdCount ++;\n\n    return ads[adID].message;\n  }\n  \n/// @dev Following functions will be completed with future updates\n  function showAd(uint adID) public view returns(string memory) {\n    return ads[adID].message;\n  }\n\n  function showAdUrl(uint adID) public view returns(string memory) {\n    return ads[adID].url;\n  }\n  \n  function getPrice() public view returns(uint) {\n    return price;\n  }\n\n  function changePrice(uint newPrice) external onlyOwner {\n    price = newPrice;\n  }\n\n  function getBuyer(uint adID) public view returns(address) {\n    return ads[adID].buyer;\n  }\n\n/// @dev Remove an adSpace message and replace with default.\n  function closeAd(uint adID) public verifyBuyer(adID, msg.sender) {\n    ads[adID].message = \"\";\n    ads[adID].buyer = address(0);\n    ads[adID].sold = false;\n\n    refund();\n  }\n\n/// @dev Return current adCount\n\n  function getAdCount() public view returns (uint) {\n    return AdCount;\n  }\n\n/// @dev Refund customer with the unused eth balance after closing the adSpace\n  function refund() public {\n\n  }\n\n\n/// @dev Enable contract to receive money\n  receive() external payable {}\n\n/// @dev Fallback function is called when msg.data is not empty\n  fallback() external payable {}\n\n/// @dev Check money accured in the contract\n  function getBalance() public view returns (uint) {\n        return address(this).balance;\n  }\n\n/// @dev Withdraw money accured in the contract to owner of contract\n  function withdrawAll() external onlyOwner {\n    (bool sent, bytes memory data) = owner().call{value: getBalance()}(\"\");\n    require(sent, \"Failed to send Ether\");\n  }\n}\n",
  "sourcePath": "/home/scookie/github/blockchain-developer-bootcamp-final-project/contracts/MyContract.sol",
  "compiler": {
    "name": "solc",
    "version": "0.8.0+commit.c7dfd78e.Emscripten.clang"
  },
  "schemaVersion": "3.4.3",
  "updatedAt": "2021-11-30T01:04:16.563Z",
  "networkType": "ethereum",
  "devdoc": {
    "author": "Gary Ghayrat",
    "details": "All function calls are currently implemented without side effects",
    "kind": "dev",
    "methods": {
      "buyAd(uint256,uint256,string,string)": {
        "details": "Pick an adSpace # from the mapping and input a message to be displayed on the website"
      },
      "closeAd(uint256)": {
        "details": "Remove an adSpace message and replace with default."
      },
      "getAdCount()": {
        "details": "Return current adCount"
      },
      "getBalance()": {
        "details": "Check money accured in the contract"
      },
      "owner()": {
        "details": "Returns the address of the current owner."
      },
      "refund()": {
        "details": "Refund customer with the unused eth balance after closing the adSpace"
      },
      "renounceOwnership()": {
        "details": "Leaves the contract without owner. It will not be possible to call `onlyOwner` functions anymore. Can only be called by the current owner. NOTE: Renouncing ownership will leave the contract without an owner, thereby removing any functionality that is only available to the owner."
      },
      "showAd(uint256)": {
        "details": "Following functions will be completed with future updates"
      },
      "transferOwnership(address)": {
        "details": "Transfers ownership of the contract to a new account (`newOwner`). Can only be called by the current owner."
      },
      "withdrawAll()": {
        "details": "Withdraw money accured in the contract to owner of contract"
      }
    },
    "stateVariables": {
      "ads": {
        "details": "All avaialble ad spaces"
      },
      "balances": {
        "details": "Buyer's balance, currently not used"
      },
      "price": {
        "details": "Price of a single adSpace;"
      },
      "spots": {
        "details": "Determine how many adSpots are available;"
      }
    },
    "title": "Garyslist",
    "version": 1
  },
  "userdoc": {
    "kind": "user",
    "methods": {},
    "notice": "Simple way to store texts on Ethereum ",
    "version": 1
  }
}