{
  "contractName": "MyContract",
  "abi": [
    {
      "anonymous": false,
      "inputs": [
        {
          "indexed": true,
          "internalType": "address",
          "name": "previousOwner",
          "type": "address"
        },
        {
          "indexed": true,
          "internalType": "address",
          "name": "newOwner",
          "type": "address"
        }
      ],
      "name": "OwnershipTransferred",
      "type": "event"
    },
    {
      "stateMutability": "payable",
      "type": "fallback",
      "payable": true
    },
    {
      "inputs": [
        {
          "internalType": "uint256",
          "name": "",
          "type": "uint256"
        }
      ],
      "name": "ads",
      "outputs": [
        {
          "internalType": "uint256",
          "name": "adCount",
          "type": "uint256"
        },
        {
          "internalType": "uint256",
          "name": "price",
          "type": "uint256"
        },
        {
          "internalType": "uint256",
          "name": "expires",
          "type": "uint256"
        },
        {
          "internalType": "string",
          "name": "message",
          "type": "string"
        },
        {
          "internalType": "string",
          "name": "url",
          "type": "string"
        },
        {
          "internalType": "address",
          "name": "buyer",
          "type": "address"
        },
        {
          "internalType": "bool",
          "name": "sold",
          "type": "bool"
        }
      ],
      "stateMutability": "view",
      "type": "function",
      "constant": true
    },
    {
      "inputs": [
        {
          "internalType": "uint256",
          "name": "",
          "type": "uint256"
        }
      ],
      "name": "buyers",
      "outputs": [
        {
          "internalType": "address",
          "name": "",
          "type": "address"
        }
      ],
      "stateMutability": "view",
      "type": "function",
      "constant": true
    },
    {
      "inputs": [],
      "name": "owner",
      "outputs": [
        {
          "internalType": "address",
          "name": "",
          "type": "address"
        }
      ],
      "stateMutability": "view",
      "type": "function",
      "constant": true
    },
    {
      "inputs": [],
      "name": "renounceOwnership",
      "outputs": [],
      "stateMutability": "nonpayable",
      "type": "function"
    },
    {
      "inputs": [
        {
          "internalType": "address",
          "name": "newOwner",
          "type": "address"
        }
      ],
      "name": "transferOwnership",
      "outputs": [],
      "stateMutability": "nonpayable",
      "type": "function"
    },
    {
      "stateMutability": "payable",
      "type": "receive",
      "payable": true
    },
    {
      "inputs": [
        {
          "internalType": "uint256",
          "name": "adID",
          "type": "uint256"
        },
        {
          "internalType": "uint256",
          "name": "_expires",
          "type": "uint256"
        },
        {
          "internalType": "string",
          "name": "_message",
          "type": "string"
        },
        {
          "internalType": "string",
          "name": "_url",
          "type": "string"
        }
      ],
      "name": "buyAd",
      "outputs": [
        {
          "internalType": "string",
          "name": "",
          "type": "string"
        }
      ],
      "stateMutability": "payable",
      "type": "function",
      "payable": true
    },
    {
      "inputs": [
        {
          "internalType": "uint256",
          "name": "adID",
          "type": "uint256"
        }
      ],
      "name": "showAd",
      "outputs": [
        {
          "internalType": "string",
          "name": "",
          "type": "string"
        }
      ],
      "stateMutability": "view",
      "type": "function",
      "constant": true
    },
    {
      "inputs": [],
      "name": "getPrice",
      "outputs": [
        {
          "internalType": "uint256",
          "name": "",
          "type": "uint256"
        }
      ],
      "stateMutability": "view",
      "type": "function",
      "constant": true
    },
    {
      "inputs": [
        {
          "internalType": "uint256",
          "name": "adID",
          "type": "uint256"
        }
      ],
      "name": "closeAd",
      "outputs": [],
      "stateMutability": "nonpayable",
      "type": "function"
    },
    {
      "inputs": [],
      "name": "refund",
      "outputs": [],
      "stateMutability": "nonpayable",
      "type": "function"
    },
    {
      "inputs": [],
      "name": "getBalance",
      "outputs": [
        {
          "internalType": "uint256",
          "name": "",
          "type": "uint256"
        }
      ],
      "stateMutability": "view",
      "type": "function",
      "constant": true
    },
    {
      "inputs": [],
      "name": "withdrawAll",
      "outputs": [],
      "stateMutability": "nonpayable",
      "type": "function"
    }
  ],
  "bytecode": "0x608060405260036001556000600255662386f26fc1000060085534801561002557600080fd5b5061004261003761004760201b60201c565b61004f60201b60201c565b610113565b600033905090565b60008060009054906101000a900473ffffffffffffffffffffffffffffffffffffffff169050816000806101000a81548173ffffffffffffffffffffffffffffffffffffffff021916908373ffffffffffffffffffffffffffffffffffffffff1602179055508173ffffffffffffffffffffffffffffffffffffffff168173ffffffffffffffffffffffffffffffffffffffff167f8be0079c531659141344cd1fd0a4f28419497f9722a3daafe3b4186f6b6457e060405160405180910390a35050565b6114b5806101226000396000f3fe6080604052600436106100ab5760003560e01c8063853828b611610064578063853828b6146101b65780638da5cb5b146101cd57806398d5fdca146101f8578063edfef7ca14610223578063f2aa821814610253578063f2fde38b14610290576100b2565b8063111870d9146100b457806311a7a4c0146100dd57806312065fe014610120578063590e1ae31461014b578063715018a6146101625780637df9364a14610179576100b2565b366100b257005b005b3480156100c057600080fd5b506100db60048036038101906100d69190610d5c565b6102b9565b005b3480156100e957600080fd5b5061010460048036038101906100ff9190610d5c565b6103f5565b6040516101179796959493929190610e8d565b60405180910390f35b34801561012c57600080fd5b50610135610574565b6040516101429190610f0a565b60405180910390f35b34801561015757600080fd5b5061016061057c565b005b34801561016e57600080fd5b5061017761057e565b005b34801561018557600080fd5b506101a0600480360381019061019b9190610d5c565b610606565b6040516101ad9190610f25565b60405180910390f35b3480156101c257600080fd5b506101cb6106ae565b005b3480156101d957600080fd5b506101e26107ea565b6040516101ef9190610f47565b60405180910390f35b34801561020457600080fd5b5061020d610813565b60405161021a9190610f0a565b60405180910390f35b61023d60048036038101906102389190611097565b61081d565b60405161024a9190610f25565b60405180910390f35b34801561025f57600080fd5b5061027a60048036038101906102759190610d5c565b610a75565b6040516102879190610f47565b60405180910390f35b34801561029c57600080fd5b506102b760048036038101906102b29190611162565b610aab565b005b80336006600083815260200190815260200160002060050160009054906101000a900473ffffffffffffffffffffffffffffffffffffffff1673ffffffffffffffffffffffffffffffffffffffff168173ffffffffffffffffffffffffffffffffffffffff161461032957600080fd5b60405180602001604052806000815250600660008581526020019081526020016000206003019080519060200190610362929190610c6f565b5060006006600085815260200190815260200160002060050160006101000a81548173ffffffffffffffffffffffffffffffffffffffff021916908373ffffffffffffffffffffffffffffffffffffffff16021790555060006006600085815260200190815260200160002060050160146101000a81548160ff0219169083151502179055506103f061057c565b505050565b600660205280600052604060002060009150905080600001549080600101549080600201549080600301805461042a906111be565b80601f0160208091040260200160405190810160405280929190818152602001828054610456906111be565b80156104a35780601f10610478576101008083540402835291602001916104a3565b820191906000526020600020905b81548152906001019060200180831161048657829003601f168201915b5050505050908060040180546104b8906111be565b80601f01602080910402602001604051908101604052809291908181526020018280546104e4906111be565b80156105315780601f1061050657610100808354040283529160200191610531565b820191906000526020600020905b81548152906001019060200180831161051457829003601f168201915b5050505050908060050160009054906101000a900473ffffffffffffffffffffffffffffffffffffffff16908060050160149054906101000a900460ff16905087565b600047905090565b565b610586610ba3565b73ffffffffffffffffffffffffffffffffffffffff166105a46107ea565b73ffffffffffffffffffffffffffffffffffffffff16146105fa576040517f08c379a00000000000000000000000000000000000000000000000000000000081526004016105f19061123c565b60405180910390fd5b6106046000610bab565b565b6060600660008381526020019081526020016000206003018054610629906111be565b80601f0160208091040260200160405190810160405280929190818152602001828054610655906111be565b80156106a25780601f10610677576101008083540402835291602001916106a2565b820191906000526020600020905b81548152906001019060200180831161068557829003601f168201915b50505050509050919050565b6106b6610ba3565b73ffffffffffffffffffffffffffffffffffffffff166106d46107ea565b73ffffffffffffffffffffffffffffffffffffffff161461072a576040517f08c379a00000000000000000000000000000000000000000000000000000000081526004016107219061123c565b60405180910390fd5b6000806107356107ea565b73ffffffffffffffffffffffffffffffffffffffff16610753610574565b60405161075f9061128d565b60006040518083038185875af1925050503d806000811461079c576040519150601f19603f3d011682016040523d82523d6000602084013e6107a1565b606091505b5091509150816107e6576040517f08c379a00000000000000000000000000000000000000000000000000000000081526004016107dd906112ee565b60405180910390fd5b5050565b60008060009054906101000a900473ffffffffffffffffffffffffffffffffffffffff16905090565b6000600854905090565b606084848060085461082f919061133d565b34101561083b57600080fd5b866000811015801561084e575060015481105b61085757600080fd5b60001515600660008a815260200190815260200160002060050160149054906101000a900460ff1615151461088b57600080fd5b6040518060e001604052806002548152602001600854815260200162015180896108b5919061133d565b426108c09190611397565b81526020018781526020018681526020013373ffffffffffffffffffffffffffffffffffffffff16815260200160011515815250600660008a81526020019081526020016000206000820151816000015560208201518160010155604082015181600201556060820151816003019080519060200190610941929190610c6f565b50608082015181600401908051906020019061095e929190610c6f565b5060a08201518160050160006101000a81548173ffffffffffffffffffffffffffffffffffffffff021916908373ffffffffffffffffffffffffffffffffffffffff16021790555060c08201518160050160146101000a81548160ff0219169083151502179055509050506006600089815260200190815260200160002060030180546109ea906111be565b80601f0160208091040260200160405190810160405280929190818152602001828054610a16906111be565b8015610a635780601f10610a3857610100808354040283529160200191610a63565b820191906000526020600020905b815481529060010190602001808311610a4657829003601f168201915b50505050509350505050949350505050565b60038160038110610a8557600080fd5b016000915054906101000a900473ffffffffffffffffffffffffffffffffffffffff1681565b610ab3610ba3565b73ffffffffffffffffffffffffffffffffffffffff16610ad16107ea565b73ffffffffffffffffffffffffffffffffffffffff1614610b27576040517f08c379a0000000000000000000000000000000000000000000000000000000008152600401610b1e9061123c565b60405180910390fd5b600073ffffffffffffffffffffffffffffffffffffffff168173ffffffffffffffffffffffffffffffffffffffff161415610b97576040517f08c379a0000000000000000000000000000000000000000000000000000000008152600401610b8e9061145f565b60405180910390fd5b610ba081610bab565b50565b600033905090565b60008060009054906101000a900473ffffffffffffffffffffffffffffffffffffffff169050816000806101000a81548173ffffffffffffffffffffffffffffffffffffffff021916908373ffffffffffffffffffffffffffffffffffffffff1602179055508173ffffffffffffffffffffffffffffffffffffffff168173ffffffffffffffffffffffffffffffffffffffff167f8be0079c531659141344cd1fd0a4f28419497f9722a3daafe3b4186f6b6457e060405160405180910390a35050565b828054610c7b906111be565b90600052602060002090601f016020900481019282610c9d5760008555610ce4565b82601f10610cb657805160ff1916838001178555610ce4565b82800160010185558215610ce4579182015b82811115610ce3578251825591602001919060010190610cc8565b5b509050610cf19190610cf5565b5090565b5b80821115610d0e576000816000905550600101610cf6565b5090565b6000604051905090565b600080fd5b600080fd5b6000819050919050565b610d3981610d26565b8114610d4457600080fd5b50565b600081359050610d5681610d30565b92915050565b600060208284031215610d7257610d71610d1c565b5b6000610d8084828501610d47565b91505092915050565b610d9281610d26565b82525050565b600081519050919050565b600082825260208201905092915050565b60005b83811015610dd2578082015181840152602081019050610db7565b83811115610de1576000848401525b50505050565b6000601f19601f8301169050919050565b6000610e0382610d98565b610e0d8185610da3565b9350610e1d818560208601610db4565b610e2681610de7565b840191505092915050565b600073ffffffffffffffffffffffffffffffffffffffff82169050919050565b6000610e5c82610e31565b9050919050565b610e6c81610e51565b82525050565b60008115159050919050565b610e8781610e72565b82525050565b600060e082019050610ea2600083018a610d89565b610eaf6020830189610d89565b610ebc6040830188610d89565b8181036060830152610ece8187610df8565b90508181036080830152610ee28186610df8565b9050610ef160a0830185610e63565b610efe60c0830184610e7e565b98975050505050505050565b6000602082019050610f1f6000830184610d89565b92915050565b60006020820190508181036000830152610f3f8184610df8565b905092915050565b6000602082019050610f5c6000830184610e63565b92915050565b600080fd5b600080fd5b7f4e487b7100000000000000000000000000000000000000000000000000000000600052604160045260246000fd5b610fa482610de7565b810181811067ffffffffffffffff82111715610fc357610fc2610f6c565b5b80604052505050565b6000610fd6610d12565b9050610fe28282610f9b565b919050565b600067ffffffffffffffff82111561100257611001610f6c565b5b61100b82610de7565b9050602081019050919050565b82818337600083830152505050565b600061103a61103584610fe7565b610fcc565b90508281526020810184848401111561105657611055610f67565b5b611061848285611018565b509392505050565b600082601f83011261107e5761107d610f62565b5b813561108e848260208601611027565b91505092915050565b600080600080608085870312156110b1576110b0610d1c565b5b60006110bf87828801610d47565b94505060206110d087828801610d47565b935050604085013567ffffffffffffffff8111156110f1576110f0610d21565b5b6110fd87828801611069565b925050606085013567ffffffffffffffff81111561111e5761111d610d21565b5b61112a87828801611069565b91505092959194509250565b61113f81610e51565b811461114a57600080fd5b50565b60008135905061115c81611136565b92915050565b60006020828403121561117857611177610d1c565b5b60006111868482850161114d565b91505092915050565b7f4e487b7100000000000000000000000000000000000000000000000000000000600052602260045260246000fd5b600060028204905060018216806111d657607f821691505b602082108114156111ea576111e961118f565b5b50919050565b7f4f776e61626c653a2063616c6c6572206973206e6f7420746865206f776e6572600082015250565b6000611226602083610da3565b9150611231826111f0565b602082019050919050565b6000602082019050818103600083015261125581611219565b9050919050565b600081905092915050565b50565b600061127760008361125c565b915061128282611267565b600082019050919050565b60006112988261126a565b9150819050919050565b7f4661696c656420746f2073656e64204574686572000000000000000000000000600082015250565b60006112d8601483610da3565b91506112e3826112a2565b602082019050919050565b60006020820190508181036000830152611307816112cb565b9050919050565b7f4e487b7100000000000000000000000000000000000000000000000000000000600052601160045260246000fd5b600061134882610d26565b915061135383610d26565b9250817fffffffffffffffffffffffffffffffffffffffffffffffffffffffffffffffff048311821515161561138c5761138b61130e565b5b828202905092915050565b60006113a282610d26565b91506113ad83610d26565b9250827fffffffffffffffffffffffffffffffffffffffffffffffffffffffffffffffff038211156113e2576113e161130e565b5b828201905092915050565b7f4f776e61626c653a206e6577206f776e657220697320746865207a65726f206160008201527f6464726573730000000000000000000000000000000000000000000000000000602082015250565b6000611449602683610da3565b9150611454826113ed565b604082019050919050565b600060208201905081810360008301526114788161143c565b905091905056fea2646970667358221220be0650e3748a8530ed0850904254ef255b64749d1cdbef360d9e46d4d3d258d264736f6c634300080a0033",
  "immutableReferences": {},
  "source": "// SPDX-License-Identifier: MIT\npragma solidity >=0.8.0;\nimport \"@openzeppelin/contracts/access/Ownable.sol\";\n//import \"hardhat/console.sol\";\n\ncontract MyContract is Ownable{\n\n//Determine how many adSpots are available;\n  uint spots = 3;\n  uint adCount = 0;\n\n//all buyers who get to close their adSpace and get a refund\n  address[3] public buyers;\n\n//all avaialble ad spaces\n  mapping (uint => Ad) public ads;\n\n//Ad specifications\n\n  struct Ad {\n    uint adCount;\n    uint price;\n    uint expires;\n    string message;\n    string url;\n    address buyer;\n    bool sold;\n  }\n\n//Buyer's balance\n  mapping (address => uint) balances;\n\n//Price of a single adSpace;\n  uint price = 1e16; //0.1 ether\n  \n\n//Verify it's the owner of an ad that's trying to call the contract;\n  modifier verifyBuyer (uint adID, address _address) {\n    require(_address == ads[adID].buyer);\n    _;\n  }\n\n//Verify buyer paid enough for the adSpace or have enough balance in their account;\n  modifier verifyAmount(uint adID, uint expires) {\n    require(msg.value >= price*expires);\n    _;\n  }\n\n//Verify the adID exists within range\n  modifier verifyExists(uint adID) {\n    require (adID >= 0 && adID < spots);\n    _;\n  }\n\n//Pick an adSpace # from the mapping and input a message to be displayed on the website\n  function buyAd(uint adID, uint _expires, string memory _message, string memory _url) public payable verifyAmount(adID, _expires) verifyExists(adID) returns(string memory) {\n    require (ads[adID].sold == false);\n\n    ads[adID] = Ad({\n      adCount: adCount,\n      price: price,\n      expires: block.timestamp + (_expires * 1 days),\n      message: _message,\n      url : _url,\n      buyer : msg.sender,\n      sold : true\n    });\n\n    return ads[adID].message;\n  }\n  \n  function showAd(uint adID) public view returns(string memory) {\n    return ads[adID].message;\n  }\n  \n  function getPrice() public view returns(uint) {\n    return price;\n  }\n\n  // function getBuyer(uint number) public view returns(address) {\n  //   return buyers[number];\n  // }\n\n//Remove an adSpace message and replace with default.\n  function closeAd(uint adID) public verifyBuyer(adID, msg.sender) {\n    ads[adID].message = \"\";\n    ads[adID].buyer = address(0);\n    ads[adID].sold = false;\n\n    refund();\n  }\n\n//Refund customer with the unused eth balance after closing the adSpace\n  function refund() public {\n\n  }\n\n\n//Enable contract to receive money\n  receive() external payable {}\n\n//Fallback function is called when msg.data is not empty\n  fallback() external payable {}\n\n//Check money accured in the contract\n  function getBalance() public view returns (uint) {\n        return address(this).balance;\n  }\n\n//Withdraw money accured in the contract to owner of contract\n  function withdrawAll() external onlyOwner {\n    (bool sent, bytes memory data) = owner().call{value: getBalance()}(\"\");\n    require(sent, \"Failed to send Ether\");\n  }\n}\n",
  "sourcePath": "/home/scookie/github/blockchain-developer-bootcamp-final-project/contracts/MyContract.sol",
  "compiler": {
    "name": "solc",
    "version": "0.8.10+commit.fc410830.Emscripten.clang"
  },
  "schemaVersion": "3.4.3",
  "updatedAt": "2021-11-24T02:19:16.878Z",
  "networkType": "ethereum",
  "devdoc": {
    "kind": "dev",
    "methods": {
      "owner()": {
        "details": "Returns the address of the current owner."
      },
      "renounceOwnership()": {
        "details": "Leaves the contract without owner. It will not be possible to call `onlyOwner` functions anymore. Can only be called by the current owner. NOTE: Renouncing ownership will leave the contract without an owner, thereby removing any functionality that is only available to the owner."
      },
      "transferOwnership(address)": {
        "details": "Transfers ownership of the contract to a new account (`newOwner`). Can only be called by the current owner."
      }
    },
    "version": 1
  },
  "userdoc": {
    "kind": "user",
    "methods": {},
    "version": 1
  }
}