{
  "contractName": "MyContract",
  "abi": [
    {
      "anonymous": false,
      "inputs": [
        {
          "indexed": true,
          "internalType": "address",
          "name": "previousOwner",
          "type": "address"
        },
        {
          "indexed": true,
          "internalType": "address",
          "name": "newOwner",
          "type": "address"
        }
      ],
      "name": "OwnershipTransferred",
      "type": "event"
    },
    {
      "stateMutability": "payable",
      "type": "fallback",
      "payable": true
    },
    {
      "inputs": [
        {
          "internalType": "uint256",
          "name": "",
          "type": "uint256"
        }
      ],
      "name": "buyers",
      "outputs": [
        {
          "internalType": "address",
          "name": "",
          "type": "address"
        }
      ],
      "stateMutability": "view",
      "type": "function",
      "constant": true
    },
    {
      "inputs": [],
      "name": "owner",
      "outputs": [
        {
          "internalType": "address",
          "name": "",
          "type": "address"
        }
      ],
      "stateMutability": "view",
      "type": "function",
      "constant": true
    },
    {
      "inputs": [],
      "name": "renounceOwnership",
      "outputs": [],
      "stateMutability": "nonpayable",
      "type": "function"
    },
    {
      "inputs": [
        {
          "internalType": "address",
          "name": "newOwner",
          "type": "address"
        }
      ],
      "name": "transferOwnership",
      "outputs": [],
      "stateMutability": "nonpayable",
      "type": "function"
    },
    {
      "stateMutability": "payable",
      "type": "receive",
      "payable": true
    },
    {
      "inputs": [
        {
          "internalType": "uint256",
          "name": "adID",
          "type": "uint256"
        },
        {
          "internalType": "string",
          "name": "message",
          "type": "string"
        }
      ],
      "name": "buyAd",
      "outputs": [
        {
          "internalType": "string",
          "name": "",
          "type": "string"
        }
      ],
      "stateMutability": "payable",
      "type": "function",
      "payable": true
    },
    {
      "inputs": [
        {
          "internalType": "uint256",
          "name": "adID",
          "type": "uint256"
        }
      ],
      "name": "showAd",
      "outputs": [
        {
          "internalType": "string",
          "name": "",
          "type": "string"
        }
      ],
      "stateMutability": "view",
      "type": "function",
      "constant": true
    },
    {
      "inputs": [],
      "name": "getPrice",
      "outputs": [
        {
          "internalType": "uint256",
          "name": "",
          "type": "uint256"
        }
      ],
      "stateMutability": "view",
      "type": "function",
      "constant": true
    },
    {
      "inputs": [
        {
          "internalType": "uint256",
          "name": "number",
          "type": "uint256"
        }
      ],
      "name": "getBuyer",
      "outputs": [
        {
          "internalType": "address",
          "name": "",
          "type": "address"
        }
      ],
      "stateMutability": "view",
      "type": "function",
      "constant": true
    },
    {
      "inputs": [
        {
          "internalType": "uint256",
          "name": "adID",
          "type": "uint256"
        }
      ],
      "name": "closeAd",
      "outputs": [],
      "stateMutability": "nonpayable",
      "type": "function"
    },
    {
      "inputs": [],
      "name": "refund",
      "outputs": [],
      "stateMutability": "nonpayable",
      "type": "function"
    },
    {
      "inputs": [],
      "name": "getBalance",
      "outputs": [
        {
          "internalType": "uint256",
          "name": "",
          "type": "uint256"
        }
      ],
      "stateMutability": "view",
      "type": "function",
      "constant": true
    },
    {
      "inputs": [],
      "name": "withdrawAll",
      "outputs": [],
      "stateMutability": "nonpayable",
      "type": "function"
    }
  ],
  "bytecode": "0x60806040526003600155662386f26fc1000060075534801561002057600080fd5b5061003d61003261004260201b60201c565b61004a60201b60201c565b61010e565b600033905090565b60008060009054906101000a900473ffffffffffffffffffffffffffffffffffffffff169050816000806101000a81548173ffffffffffffffffffffffffffffffffffffffff021916908373ffffffffffffffffffffffffffffffffffffffff1602179055508173ffffffffffffffffffffffffffffffffffffffff168173ffffffffffffffffffffffffffffffffffffffff167f8be0079c531659141344cd1fd0a4f28419497f9722a3daafe3b4186f6b6457e060405160405180910390a35050565b610f698061011d6000396000f3fe6080604052600436106100ab5760003560e01c80637df9364a116100645780637df9364a146101a4578063853828b6146101e15780638da5cb5b146101f857806398d5fdca14610223578063f2aa82181461024e578063f2fde38b1461028b576100b2565b806303ceb031146100b4578063111870d9146100e557806312065fe01461010e578063590e1ae3146101395780635bf608b814610150578063715018a61461018d576100b2565b366100b257005b005b6100ce60048036038101906100c99190610a6c565b6102b4565b6040516100dc929190610b2a565b60405180910390f35b3480156100f157600080fd5b5061010c60048036038101906101079190610b4e565b6103b4565b005b34801561011a57600080fd5b50610123610428565b6040516101309190610b8a565b60405180910390f35b34801561014557600080fd5b5061014e610430565b005b34801561015c57600080fd5b5061017760048036038101906101729190610b4e565b610432565b6040516101849190610be6565b60405180910390f35b34801561019957600080fd5b506101a2610471565b005b3480156101b057600080fd5b506101cb60048036038101906101c69190610b4e565b6104f9565b6040516101d89190610c78565b60405180910390f35b3480156101ed57600080fd5b506101f66105bb565b005b34801561020457600080fd5b5061020d6106f7565b60405161021a9190610be6565b60405180910390f35b34801561022f57600080fd5b50610238610720565b6040516102459190610b8a565b60405180910390f35b34801561025a57600080fd5b5061027560048036038101906102709190610b4e565b61072a565b6040516102829190610be6565b60405180910390f35b34801561029757600080fd5b506102b260048036038101906102ad9190610cc6565b610760565b005b366000600754341015806103095750600754600660003373ffffffffffffffffffffffffffffffffffffffff1673ffffffffffffffffffffffffffffffffffffffff1681526020019081526020016000205410155b61031257600080fd5b8460008110158015610325575060015481105b61032e57600080fd5b336002876003811061034357610342610cf3565b5b0160006101000a81548173ffffffffffffffffffffffffffffffffffffffff021916908373ffffffffffffffffffffffffffffffffffffffff16021790555084846005600089815260200190815260200160002091906103a4929190610924565b5084849250925050935093915050565b8033600282600381106103ca576103c9610cf3565b5b0160009054906101000a900473ffffffffffffffffffffffffffffffffffffffff1673ffffffffffffffffffffffffffffffffffffffff163373ffffffffffffffffffffffffffffffffffffffff161461042357600080fd5b505050565b600047905090565b565b60006002826003811061044857610447610cf3565b5b0160009054906101000a900473ffffffffffffffffffffffffffffffffffffffff169050919050565b610479610858565b73ffffffffffffffffffffffffffffffffffffffff166104976106f7565b73ffffffffffffffffffffffffffffffffffffffff16146104ed576040517f08c379a00000000000000000000000000000000000000000000000000000000081526004016104e490610d6e565b60405180910390fd5b6104f76000610860565b565b6060816000811015801561050e575060015481105b61051757600080fd5b60056000848152602001908152602001600020805461053590610dbd565b80601f016020809104026020016040519081016040528092919081815260200182805461056190610dbd565b80156105ae5780601f10610583576101008083540402835291602001916105ae565b820191906000526020600020905b81548152906001019060200180831161059157829003601f168201915b5050505050915050919050565b6105c3610858565b73ffffffffffffffffffffffffffffffffffffffff166105e16106f7565b73ffffffffffffffffffffffffffffffffffffffff1614610637576040517f08c379a000000000000000000000000000000000000000000000000000000000815260040161062e90610d6e565b60405180910390fd5b6000806106426106f7565b73ffffffffffffffffffffffffffffffffffffffff16610660610428565b60405161066c90610e20565b60006040518083038185875af1925050503d80600081146106a9576040519150601f19603f3d011682016040523d82523d6000602084013e6106ae565b606091505b5091509150816106f3576040517f08c379a00000000000000000000000000000000000000000000000000000000081526004016106ea90610e81565b60405180910390fd5b5050565b60008060009054906101000a900473ffffffffffffffffffffffffffffffffffffffff16905090565b6000600754905090565b6002816003811061073a57600080fd5b016000915054906101000a900473ffffffffffffffffffffffffffffffffffffffff1681565b610768610858565b73ffffffffffffffffffffffffffffffffffffffff166107866106f7565b73ffffffffffffffffffffffffffffffffffffffff16146107dc576040517f08c379a00000000000000000000000000000000000000000000000000000000081526004016107d390610d6e565b60405180910390fd5b600073ffffffffffffffffffffffffffffffffffffffff168173ffffffffffffffffffffffffffffffffffffffff16141561084c576040517f08c379a000000000000000000000000000000000000000000000000000000000815260040161084390610f13565b60405180910390fd5b61085581610860565b50565b600033905090565b60008060009054906101000a900473ffffffffffffffffffffffffffffffffffffffff169050816000806101000a81548173ffffffffffffffffffffffffffffffffffffffff021916908373ffffffffffffffffffffffffffffffffffffffff1602179055508173ffffffffffffffffffffffffffffffffffffffff168173ffffffffffffffffffffffffffffffffffffffff167f8be0079c531659141344cd1fd0a4f28419497f9722a3daafe3b4186f6b6457e060405160405180910390a35050565b82805461093090610dbd565b90600052602060002090601f0160209004810192826109525760008555610999565b82601f1061096b57803560ff1916838001178555610999565b82800160010185558215610999579182015b8281111561099857823582559160200191906001019061097d565b5b5090506109a691906109aa565b5090565b5b808211156109c35760008160009055506001016109ab565b5090565b600080fd5b600080fd5b6000819050919050565b6109e4816109d1565b81146109ef57600080fd5b50565b600081359050610a01816109db565b92915050565b600080fd5b600080fd5b600080fd5b60008083601f840112610a2c57610a2b610a07565b5b8235905067ffffffffffffffff811115610a4957610a48610a0c565b5b602083019150836001820283011115610a6557610a64610a11565b5b9250929050565b600080600060408486031215610a8557610a846109c7565b5b6000610a93868287016109f2565b935050602084013567ffffffffffffffff811115610ab457610ab36109cc565b5b610ac086828701610a16565b92509250509250925092565b600082825260208201905092915050565b82818337600083830152505050565b6000601f19601f8301169050919050565b6000610b098385610acc565b9350610b16838584610add565b610b1f83610aec565b840190509392505050565b60006020820190508181036000830152610b45818486610afd565b90509392505050565b600060208284031215610b6457610b636109c7565b5b6000610b72848285016109f2565b91505092915050565b610b84816109d1565b82525050565b6000602082019050610b9f6000830184610b7b565b92915050565b600073ffffffffffffffffffffffffffffffffffffffff82169050919050565b6000610bd082610ba5565b9050919050565b610be081610bc5565b82525050565b6000602082019050610bfb6000830184610bd7565b92915050565b600081519050919050565b60005b83811015610c2a578082015181840152602081019050610c0f565b83811115610c39576000848401525b50505050565b6000610c4a82610c01565b610c548185610acc565b9350610c64818560208601610c0c565b610c6d81610aec565b840191505092915050565b60006020820190508181036000830152610c928184610c3f565b905092915050565b610ca381610bc5565b8114610cae57600080fd5b50565b600081359050610cc081610c9a565b92915050565b600060208284031215610cdc57610cdb6109c7565b5b6000610cea84828501610cb1565b91505092915050565b7f4e487b7100000000000000000000000000000000000000000000000000000000600052603260045260246000fd5b7f4f776e61626c653a2063616c6c6572206973206e6f7420746865206f776e6572600082015250565b6000610d58602083610acc565b9150610d6382610d22565b602082019050919050565b60006020820190508181036000830152610d8781610d4b565b9050919050565b7f4e487b7100000000000000000000000000000000000000000000000000000000600052602260045260246000fd5b60006002820490506001821680610dd557607f821691505b60208210811415610de957610de8610d8e565b5b50919050565b600081905092915050565b50565b6000610e0a600083610def565b9150610e1582610dfa565b600082019050919050565b6000610e2b82610dfd565b9150819050919050565b7f4661696c656420746f2073656e64204574686572000000000000000000000000600082015250565b6000610e6b601483610acc565b9150610e7682610e35565b602082019050919050565b60006020820190508181036000830152610e9a81610e5e565b9050919050565b7f4f776e61626c653a206e6577206f776e657220697320746865207a65726f206160008201527f6464726573730000000000000000000000000000000000000000000000000000602082015250565b6000610efd602683610acc565b9150610f0882610ea1565b604082019050919050565b60006020820190508181036000830152610f2c81610ef0565b905091905056fea26469706673582212204cffe6bbec931bcc08e0d1d14a2f336f2f1d32d4bb1c67634faf33c3a1a2595564736f6c634300080a0033",
  "immutableReferences": {},
  "source": "// SPDX-License-Identifier: MIT\npragma solidity >=0.8.0;\nimport \"@openzeppelin/contracts/access/Ownable.sol\";\n//import \"hardhat/console.sol\";\n\ncontract MyContract is Ownable{\n\n//Determine how many adSpots are available;\n  uint spots = 3;\n\n//all buyers who get to close their adSpace and get a refund\n  address[3] public buyers;\n\n//all avaialble ad spaces\n  mapping (uint => string ) adSpaces;\n\n//Buyer's balance\n  mapping (address => uint) balances;\n\n//Price of a single adSpace;\n  uint price = 1e16; //0.1 ether\n  \n\n//Verify it's the owner who's calling the contract\n  modifier verifyBuyer (uint adID, address _address) {\n    require(msg.sender == buyers[adID]);\n    _;\n  }\n\n//Verify buyer paid enough for the adSpace or have enough balance in their account;\n  modifier verifyAmount() {\n    require(msg.value >= price || balances[msg.sender] >= price);\n    _;\n  }\n\n//Verify the adID exists within range\n  modifier verifyExists(uint adID) {\n    require (adID >= 0 && adID < spots);\n    _;\n  }\n\n//Pick an adSpace # from the mapping and input a message to be displayed on the website\n  function buyAd(uint adID, string calldata message) public payable verifyAmount verifyExists(adID) returns(string calldata) {\n\n    buyers[adID] = msg.sender;\n    adSpaces[adID] = message;\n    return message;\n  }\n\n  function showAd(uint adID) public view verifyExists(adID) returns(string memory) {\n    return adSpaces[adID];\n  }\n\n  function getPrice() public view returns(uint) {\n    return price;\n  }\n\n  function getBuyer(uint number) public view returns(address) {\n    return buyers[number];\n  }\n\n//Remove an adSpace message and replace with default.\n  function closeAd(uint adID) public verifyBuyer(adID, msg.sender) {\n//    console.log(5);\n  }\n\n//Refund customer with the unused eth balance after closing the adSpace\n  function refund() public {\n\n  }\n\n\n//Enable contract to receive money\n  receive() external payable {}\n\n//Fallback function is called when msg.data is not empty\n  fallback() external payable {}\n\n//Check money accured in the contract\n  function getBalance() public view returns (uint) {\n        return address(this).balance;\n  }\n\n//Withdraw money accured in the contract to owner of contract\n  function withdrawAll() external onlyOwner {\n    (bool sent, bytes memory data) = owner().call{value: getBalance()}(\"\");\n    require(sent, \"Failed to send Ether\");\n  }\n}\n",
  "sourcePath": "/home/scookie/github/blockchain-developer-bootcamp-final-project/contracts/MyContract.sol",
  "compiler": {
    "name": "solc",
    "version": "0.8.10+commit.fc410830.Emscripten.clang"
  },
  "schemaVersion": "3.4.3",
  "updatedAt": "2021-11-22T21:30:57.783Z",
  "networkType": "ethereum",
  "devdoc": {
    "kind": "dev",
    "methods": {
      "owner()": {
        "details": "Returns the address of the current owner."
      },
      "renounceOwnership()": {
        "details": "Leaves the contract without owner. It will not be possible to call `onlyOwner` functions anymore. Can only be called by the current owner. NOTE: Renouncing ownership will leave the contract without an owner, thereby removing any functionality that is only available to the owner."
      },
      "transferOwnership(address)": {
        "details": "Transfers ownership of the contract to a new account (`newOwner`). Can only be called by the current owner."
      }
    },
    "version": 1
  },
  "userdoc": {
    "kind": "user",
    "methods": {},
    "version": 1
  }
}