{
  "contractName": "MyContract",
  "abi": [
    {
      "constant": false,
      "inputs": [
        {
          "internalType": "uint256",
          "name": "number",
          "type": "uint256"
        },
        {
          "internalType": "bytes32",
          "name": "message",
          "type": "bytes32"
        }
      ],
      "name": "buyAd",
      "outputs": [
        {
          "internalType": "bool",
          "name": "",
          "type": "bool"
        }
      ],
      "payable": false,
      "stateMutability": "nonpayable",
      "type": "function"
    },
    {
      "constant": false,
      "inputs": [
        {
          "internalType": "uint256",
          "name": "number",
          "type": "uint256"
        }
      ],
      "name": "closeAd",
      "outputs": [],
      "payable": false,
      "stateMutability": "nonpayable",
      "type": "function"
    },
    {
      "constant": false,
      "inputs": [],
      "name": "refund",
      "outputs": [],
      "payable": false,
      "stateMutability": "nonpayable",
      "type": "function"
    },
    {
      "constant": false,
      "inputs": [
        {
          "internalType": "uint256",
          "name": "number",
          "type": "uint256"
        }
      ],
      "name": "get",
      "outputs": [
        {
          "internalType": "bytes32",
          "name": "",
          "type": "bytes32"
        }
      ],
      "payable": false,
      "stateMutability": "nonpayable",
      "type": "function"
    }
  ],
  "bytecode": "0x608060405234801561001057600080fd5b50610194806100206000396000f3fe608060405234801561001057600080fd5b506004361061004c5760003560e01c80630793197214610051578063111870d9146100a1578063590e1ae3146100cf5780639507d39a146100d9575b600080fd5b6100876004803603604081101561006757600080fd5b81019080803590602001909291908035906020019092919050505061011b565b604051808215151515815260200191505060405180910390f35b6100cd600480360360208110156100b757600080fd5b810190808035906020019092919050505061013e565b005b6100d7610141565b005b610105600480360360208110156100ef57600080fd5b8101908080359060200190929190505050610143565b6040518082815260200191505060405180910390f35b600081600080858152602001908152602001600020819055506001905092915050565b50565b565b600080600083815260200190815260200160002054905091905056fea265627a7a723158203b6f54acd6dddd994a2e5fac5c3af530b76a7dd7148460d35fdb1dc56b079e2564736f6c63430005100032",
  "source": "// SPDX-License-Identifier: MIT\npragma solidity >=0.4.21 <0.7.0;\n\ncontract MyContract {\n//all avaialble add spaces\n  mapping (uint => bytes32) adSpaces;\n  \n//Pick an adSpace # from the mapping and input a message to be displayed on the website\n  function buyAd(uint number, bytes32 message) public returns(bool) {\n    adSpaces[number] = message;\n    return true;\n  }\n\n//Remove an adSpace message and replace with default.\n  function closeAd(uint number) public {\n\n  }\n\n//Refund customer with the unused eth balance after closing the adSpace\n  function refund() public {\n\n  }\n\n//Return the message that is located at a certain mapping location\n  function get(uint number) public returns (bytes32) {\n    return adSpaces[number];\n  }\n\n\n}\n",
  "sourcePath": "/home/scookie/github/blockchain-developer-bootcamp-final-project/contracts/MyContract.sol",
  "compiler": {
    "name": "solc",
    "version": "0.5.16+commit.9c3226ce.Emscripten.clang"
  },
  "schemaVersion": "3.4.3",
  "updatedAt": "2021-11-09T21:29:08.609Z",
  "networkType": "ethereum",
  "devdoc": {
    "methods": {}
  },
  "userdoc": {
    "methods": {}
  }
}