{
  "contractName": "MyContract",
  "abi": [
    {
      "anonymous": false,
      "inputs": [
        {
          "indexed": true,
          "internalType": "address",
          "name": "previousOwner",
          "type": "address"
        },
        {
          "indexed": true,
          "internalType": "address",
          "name": "newOwner",
          "type": "address"
        }
      ],
      "name": "OwnershipTransferred",
      "type": "event"
    },
    {
      "stateMutability": "payable",
      "type": "fallback",
      "payable": true
    },
    {
      "inputs": [
        {
          "internalType": "uint256",
          "name": "",
          "type": "uint256"
        }
      ],
      "name": "adSpaces",
      "outputs": [
        {
          "internalType": "string",
          "name": "",
          "type": "string"
        }
      ],
      "stateMutability": "view",
      "type": "function",
      "constant": true
    },
    {
      "inputs": [
        {
          "internalType": "uint256",
          "name": "",
          "type": "uint256"
        }
      ],
      "name": "buyers",
      "outputs": [
        {
          "internalType": "address",
          "name": "",
          "type": "address"
        }
      ],
      "stateMutability": "view",
      "type": "function",
      "constant": true
    },
    {
      "inputs": [],
      "name": "owner",
      "outputs": [
        {
          "internalType": "address",
          "name": "",
          "type": "address"
        }
      ],
      "stateMutability": "view",
      "type": "function",
      "constant": true
    },
    {
      "inputs": [],
      "name": "renounceOwnership",
      "outputs": [],
      "stateMutability": "nonpayable",
      "type": "function"
    },
    {
      "inputs": [
        {
          "internalType": "address",
          "name": "newOwner",
          "type": "address"
        }
      ],
      "name": "transferOwnership",
      "outputs": [],
      "stateMutability": "nonpayable",
      "type": "function"
    },
    {
      "stateMutability": "payable",
      "type": "receive",
      "payable": true
    },
    {
      "inputs": [
        {
          "internalType": "uint256",
          "name": "adID",
          "type": "uint256"
        },
        {
          "internalType": "string",
          "name": "message",
          "type": "string"
        }
      ],
      "name": "buyAd",
      "outputs": [
        {
          "internalType": "string",
          "name": "",
          "type": "string"
        }
      ],
      "stateMutability": "payable",
      "type": "function",
      "payable": true
    },
    {
      "inputs": [
        {
          "internalType": "uint256",
          "name": "adID",
          "type": "uint256"
        }
      ],
      "name": "showAd",
      "outputs": [
        {
          "internalType": "string",
          "name": "",
          "type": "string"
        }
      ],
      "stateMutability": "view",
      "type": "function",
      "constant": true
    },
    {
      "inputs": [],
      "name": "getPrice",
      "outputs": [
        {
          "internalType": "uint256",
          "name": "",
          "type": "uint256"
        }
      ],
      "stateMutability": "view",
      "type": "function",
      "constant": true
    },
    {
      "inputs": [
        {
          "internalType": "uint256",
          "name": "number",
          "type": "uint256"
        }
      ],
      "name": "getBuyer",
      "outputs": [
        {
          "internalType": "address",
          "name": "",
          "type": "address"
        }
      ],
      "stateMutability": "view",
      "type": "function",
      "constant": true
    },
    {
      "inputs": [
        {
          "internalType": "uint256",
          "name": "adID",
          "type": "uint256"
        }
      ],
      "name": "closeAd",
      "outputs": [],
      "stateMutability": "nonpayable",
      "type": "function"
    },
    {
      "inputs": [],
      "name": "refund",
      "outputs": [],
      "stateMutability": "nonpayable",
      "type": "function"
    },
    {
      "inputs": [],
      "name": "getBalance",
      "outputs": [
        {
          "internalType": "uint256",
          "name": "",
          "type": "uint256"
        }
      ],
      "stateMutability": "view",
      "type": "function",
      "constant": true
    },
    {
      "inputs": [],
      "name": "withdrawAll",
      "outputs": [],
      "stateMutability": "nonpayable",
      "type": "function"
    }
  ],
  "bytecode": "0x60806040526003600155662386f26fc1000060075534801561002057600080fd5b5061003d61003261004260201b60201c565b61004a60201b60201c565b61010e565b600033905090565b60008060009054906101000a900473ffffffffffffffffffffffffffffffffffffffff169050816000806101000a81548173ffffffffffffffffffffffffffffffffffffffff021916908373ffffffffffffffffffffffffffffffffffffffff1602179055508173ffffffffffffffffffffffffffffffffffffffff168173ffffffffffffffffffffffffffffffffffffffff167f8be0079c531659141344cd1fd0a4f28419497f9722a3daafe3b4186f6b6457e060405160405180910390a35050565b6111708061011d6000396000f3fe6080604052600436106100c65760003560e01c80637df9364a1161007f57806398d5fdca1161005957806398d5fdca1461023d578063e7c67fe714610268578063f2aa8218146102a5578063f2fde38b146102e2576100cd565b80637df9364a146101be578063853828b6146101fb5780638da5cb5b14610212576100cd565b806303ceb031146100cf578063111870d9146100ff57806312065fe014610128578063590e1ae3146101535780635bf608b81461016a578063715018a6146101a7576100cd565b366100cd57005b005b6100e960048036038101906100e49190610ce8565b61030b565b6040516100f69190610dcc565b60405180910390f35b34801561010b57600080fd5b5061012660048036038101906101219190610dee565b6104a5565b005b34801561013457600080fd5b5061013d610519565b60405161014a9190610e2a565b60405180910390f35b34801561015f57600080fd5b50610168610521565b005b34801561017657600080fd5b50610191600480360381019061018c9190610dee565b610523565b60405161019e9190610e86565b60405180910390f35b3480156101b357600080fd5b506101bc610562565b005b3480156101ca57600080fd5b506101e560048036038101906101e09190610dee565b6105ea565b6040516101f29190610dcc565b60405180910390f35b34801561020757600080fd5b506102106106ac565b005b34801561021e57600080fd5b506102276107e8565b6040516102349190610e86565b60405180910390f35b34801561024957600080fd5b50610252610811565b60405161025f9190610e2a565b60405180910390f35b34801561027457600080fd5b5061028f600480360381019061028a9190610dee565b61081b565b60405161029c9190610dcc565b60405180910390f35b3480156102b157600080fd5b506102cc60048036038101906102c79190610dee565b6108bb565b6040516102d99190610e86565b60405180910390f35b3480156102ee57600080fd5b5061030960048036038101906103049190610ecd565b6108f1565b005b60606007543410158061035f5750600754600660003373ffffffffffffffffffffffffffffffffffffffff1673ffffffffffffffffffffffffffffffffffffffff1681526020019081526020016000205410155b61036857600080fd5b826000811015801561037b575060015481105b61038457600080fd5b336002856003811061039957610398610efa565b5b0160006101000a81548173ffffffffffffffffffffffffffffffffffffffff021916908373ffffffffffffffffffffffffffffffffffffffff160217905550826005600086815260200190815260200160002090805190602001906103ff929190610ab5565b5060056000858152602001908152602001600020805461041e90610f58565b80601f016020809104026020016040519081016040528092919081815260200182805461044a90610f58565b80156104975780601f1061046c57610100808354040283529160200191610497565b820191906000526020600020905b81548152906001019060200180831161047a57829003601f168201915b505050505091505092915050565b8033600282600381106104bb576104ba610efa565b5b0160009054906101000a900473ffffffffffffffffffffffffffffffffffffffff1673ffffffffffffffffffffffffffffffffffffffff163373ffffffffffffffffffffffffffffffffffffffff161461051457600080fd5b505050565b600047905090565b565b60006002826003811061053957610538610efa565b5b0160009054906101000a900473ffffffffffffffffffffffffffffffffffffffff169050919050565b61056a6109e9565b73ffffffffffffffffffffffffffffffffffffffff166105886107e8565b73ffffffffffffffffffffffffffffffffffffffff16146105de576040517f08c379a00000000000000000000000000000000000000000000000000000000081526004016105d590610fd6565b60405180910390fd5b6105e860006109f1565b565b606081600081101580156105ff575060015481105b61060857600080fd5b60056000848152602001908152602001600020805461062690610f58565b80601f016020809104026020016040519081016040528092919081815260200182805461065290610f58565b801561069f5780601f106106745761010080835404028352916020019161069f565b820191906000526020600020905b81548152906001019060200180831161068257829003601f168201915b5050505050915050919050565b6106b46109e9565b73ffffffffffffffffffffffffffffffffffffffff166106d26107e8565b73ffffffffffffffffffffffffffffffffffffffff1614610728576040517f08c379a000000000000000000000000000000000000000000000000000000000815260040161071f90610fd6565b60405180910390fd5b6000806107336107e8565b73ffffffffffffffffffffffffffffffffffffffff16610751610519565b60405161075d90611027565b60006040518083038185875af1925050503d806000811461079a576040519150601f19603f3d011682016040523d82523d6000602084013e61079f565b606091505b5091509150816107e4576040517f08c379a00000000000000000000000000000000000000000000000000000000081526004016107db90611088565b60405180910390fd5b5050565b60008060009054906101000a900473ffffffffffffffffffffffffffffffffffffffff16905090565b6000600754905090565b6005602052806000526040600020600091509050805461083a90610f58565b80601f016020809104026020016040519081016040528092919081815260200182805461086690610f58565b80156108b35780601f10610888576101008083540402835291602001916108b3565b820191906000526020600020905b81548152906001019060200180831161089657829003601f168201915b505050505081565b600281600381106108cb57600080fd5b016000915054906101000a900473ffffffffffffffffffffffffffffffffffffffff1681565b6108f96109e9565b73ffffffffffffffffffffffffffffffffffffffff166109176107e8565b73ffffffffffffffffffffffffffffffffffffffff161461096d576040517f08c379a000000000000000000000000000000000000000000000000000000000815260040161096490610fd6565b60405180910390fd5b600073ffffffffffffffffffffffffffffffffffffffff168173ffffffffffffffffffffffffffffffffffffffff1614156109dd576040517f08c379a00000000000000000000000000000000000000000000000000000000081526004016109d49061111a565b60405180910390fd5b6109e6816109f1565b50565b600033905090565b60008060009054906101000a900473ffffffffffffffffffffffffffffffffffffffff169050816000806101000a81548173ffffffffffffffffffffffffffffffffffffffff021916908373ffffffffffffffffffffffffffffffffffffffff1602179055508173ffffffffffffffffffffffffffffffffffffffff168173ffffffffffffffffffffffffffffffffffffffff167f8be0079c531659141344cd1fd0a4f28419497f9722a3daafe3b4186f6b6457e060405160405180910390a35050565b828054610ac190610f58565b90600052602060002090601f016020900481019282610ae35760008555610b2a565b82601f10610afc57805160ff1916838001178555610b2a565b82800160010185558215610b2a579182015b82811115610b29578251825591602001919060010190610b0e565b5b509050610b379190610b3b565b5090565b5b80821115610b54576000816000905550600101610b3c565b5090565b6000604051905090565b600080fd5b600080fd5b6000819050919050565b610b7f81610b6c565b8114610b8a57600080fd5b50565b600081359050610b9c81610b76565b92915050565b600080fd5b600080fd5b6000601f19601f8301169050919050565b7f4e487b7100000000000000000000000000000000000000000000000000000000600052604160045260246000fd5b610bf582610bac565b810181811067ffffffffffffffff82111715610c1457610c13610bbd565b5b80604052505050565b6000610c27610b58565b9050610c338282610bec565b919050565b600067ffffffffffffffff821115610c5357610c52610bbd565b5b610c5c82610bac565b9050602081019050919050565b82818337600083830152505050565b6000610c8b610c8684610c38565b610c1d565b905082815260208101848484011115610ca757610ca6610ba7565b5b610cb2848285610c69565b509392505050565b600082601f830112610ccf57610cce610ba2565b5b8135610cdf848260208601610c78565b91505092915050565b60008060408385031215610cff57610cfe610b62565b5b6000610d0d85828601610b8d565b925050602083013567ffffffffffffffff811115610d2e57610d2d610b67565b5b610d3a85828601610cba565b9150509250929050565b600081519050919050565b600082825260208201905092915050565b60005b83811015610d7e578082015181840152602081019050610d63565b83811115610d8d576000848401525b50505050565b6000610d9e82610d44565b610da88185610d4f565b9350610db8818560208601610d60565b610dc181610bac565b840191505092915050565b60006020820190508181036000830152610de68184610d93565b905092915050565b600060208284031215610e0457610e03610b62565b5b6000610e1284828501610b8d565b91505092915050565b610e2481610b6c565b82525050565b6000602082019050610e3f6000830184610e1b565b92915050565b600073ffffffffffffffffffffffffffffffffffffffff82169050919050565b6000610e7082610e45565b9050919050565b610e8081610e65565b82525050565b6000602082019050610e9b6000830184610e77565b92915050565b610eaa81610e65565b8114610eb557600080fd5b50565b600081359050610ec781610ea1565b92915050565b600060208284031215610ee357610ee2610b62565b5b6000610ef184828501610eb8565b91505092915050565b7f4e487b7100000000000000000000000000000000000000000000000000000000600052603260045260246000fd5b7f4e487b7100000000000000000000000000000000000000000000000000000000600052602260045260246000fd5b60006002820490506001821680610f7057607f821691505b60208210811415610f8457610f83610f29565b5b50919050565b7f4f776e61626c653a2063616c6c6572206973206e6f7420746865206f776e6572600082015250565b6000610fc0602083610d4f565b9150610fcb82610f8a565b602082019050919050565b60006020820190508181036000830152610fef81610fb3565b9050919050565b600081905092915050565b50565b6000611011600083610ff6565b915061101c82611001565b600082019050919050565b600061103282611004565b9150819050919050565b7f4661696c656420746f2073656e64204574686572000000000000000000000000600082015250565b6000611072601483610d4f565b915061107d8261103c565b602082019050919050565b600060208201905081810360008301526110a181611065565b9050919050565b7f4f776e61626c653a206e6577206f776e657220697320746865207a65726f206160008201527f6464726573730000000000000000000000000000000000000000000000000000602082015250565b6000611104602683610d4f565b915061110f826110a8565b604082019050919050565b60006020820190508181036000830152611133816110f7565b905091905056fea2646970667358221220fc89ef7efb034a8a062aac79c98ffb5462feedd92eefa8377728fb0a39814ad764736f6c634300080a0033",
  "immutableReferences": {},
  "source": "// SPDX-License-Identifier: MIT\npragma solidity >=0.8.0;\nimport \"@openzeppelin/contracts/access/Ownable.sol\";\n//import \"hardhat/console.sol\";\n\ncontract MyContract is Ownable{\n\n//Determine how many adSpots are available;\n  uint spots = 3;\n\n//all buyers who get to close their adSpace and get a refund\n  address[3] public buyers;\n\n//all avaialble ad spaces\n  mapping (uint => string) public adSpaces;\n\n//Buyer's balance\n  mapping (address => uint) balances;\n\n//Price of a single adSpace;\n  uint price = 1e16; //0.1 ether\n  \n\n//Verify it's the owner who's calling the contract\n  modifier verifyBuyer (uint adID, address _address) {\n    require(msg.sender == buyers[adID]);\n    _;\n  }\n\n//Verify buyer paid enough for the adSpace or have enough balance in their account;\n  modifier verifyAmount() {\n    require(msg.value >= price || balances[msg.sender] >= price);\n    _;\n  }\n\n//Verify the adID exists within range\n  modifier verifyExists(uint adID) {\n    require (adID >= 0 && adID < spots);\n    _;\n  }\n\n//Pick an adSpace # from the mapping and input a message to be displayed on the website\n  function buyAd(uint adID, string memory message) public payable verifyAmount verifyExists(adID) returns(string memory) {\n\n    buyers[adID] = msg.sender;\n    adSpaces[adID] = message;\n    return adSpaces[adID];\n  }\n\n  function showAd(uint adID) public view verifyExists(adID) returns(string memory) {\n    return adSpaces[adID];\n  }\n\n  function getPrice() public view returns(uint) {\n    return price;\n  }\n\n  function getBuyer(uint number) public view returns(address) {\n    return buyers[number];\n  }\n\n//Remove an adSpace message and replace with default.\n  function closeAd(uint adID) public verifyBuyer(adID, msg.sender) {\n//    console.log(5);\n  }\n\n//Refund customer with the unused eth balance after closing the adSpace\n  function refund() public {\n\n  }\n\n\n//Enable contract to receive money\n  receive() external payable {}\n\n//Fallback function is called when msg.data is not empty\n  fallback() external payable {}\n\n//Check money accured in the contract\n  function getBalance() public view returns (uint) {\n        return address(this).balance;\n  }\n\n//Withdraw money accured in the contract to owner of contract\n  function withdrawAll() external onlyOwner {\n    (bool sent, bytes memory data) = owner().call{value: getBalance()}(\"\");\n    require(sent, \"Failed to send Ether\");\n  }\n}\n",
  "sourcePath": "/home/scookie/github/blockchain-developer-bootcamp-final-project/contracts/MyContract.sol",
  "compiler": {
    "name": "solc",
    "version": "0.8.10+commit.fc410830.Emscripten.clang"
  },
  "schemaVersion": "3.4.3",
  "updatedAt": "2021-11-23T21:03:15.348Z",
  "networkType": "ethereum",
  "devdoc": {
    "kind": "dev",
    "methods": {
      "owner()": {
        "details": "Returns the address of the current owner."
      },
      "renounceOwnership()": {
        "details": "Leaves the contract without owner. It will not be possible to call `onlyOwner` functions anymore. Can only be called by the current owner. NOTE: Renouncing ownership will leave the contract without an owner, thereby removing any functionality that is only available to the owner."
      },
      "transferOwnership(address)": {
        "details": "Transfers ownership of the contract to a new account (`newOwner`). Can only be called by the current owner."
      }
    },
    "version": 1
  },
  "userdoc": {
    "kind": "user",
    "methods": {},
    "version": 1
  }
}