{
  "contractName": "MyContract",
  "abi": [
    {
      "anonymous": false,
      "inputs": [
        {
          "indexed": true,
          "internalType": "address",
          "name": "previousOwner",
          "type": "address"
        },
        {
          "indexed": true,
          "internalType": "address",
          "name": "newOwner",
          "type": "address"
        }
      ],
      "name": "OwnershipTransferred",
      "type": "event"
    },
    {
      "stateMutability": "payable",
      "type": "fallback"
    },
    {
      "inputs": [
        {
          "internalType": "uint256",
          "name": "",
          "type": "uint256"
        }
      ],
      "name": "buyers",
      "outputs": [
        {
          "internalType": "address",
          "name": "",
          "type": "address"
        }
      ],
      "stateMutability": "view",
      "type": "function"
    },
    {
      "inputs": [],
      "name": "owner",
      "outputs": [
        {
          "internalType": "address",
          "name": "",
          "type": "address"
        }
      ],
      "stateMutability": "view",
      "type": "function"
    },
    {
      "inputs": [],
      "name": "renounceOwnership",
      "outputs": [],
      "stateMutability": "nonpayable",
      "type": "function"
    },
    {
      "inputs": [
        {
          "internalType": "address",
          "name": "newOwner",
          "type": "address"
        }
      ],
      "name": "transferOwnership",
      "outputs": [],
      "stateMutability": "nonpayable",
      "type": "function"
    },
    {
      "stateMutability": "payable",
      "type": "receive"
    },
    {
      "inputs": [
        {
          "internalType": "uint256",
          "name": "adID",
          "type": "uint256"
        },
        {
          "internalType": "bytes32",
          "name": "message",
          "type": "bytes32"
        }
      ],
      "name": "buyAd",
      "outputs": [
        {
          "internalType": "bool",
          "name": "",
          "type": "bool"
        }
      ],
      "stateMutability": "payable",
      "type": "function"
    },
    {
      "inputs": [
        {
          "internalType": "uint256",
          "name": "adID",
          "type": "uint256"
        }
      ],
      "name": "showAd",
      "outputs": [
        {
          "internalType": "bytes32",
          "name": "",
          "type": "bytes32"
        }
      ],
      "stateMutability": "view",
      "type": "function"
    },
    {
      "inputs": [
        {
          "internalType": "uint256",
          "name": "adID",
          "type": "uint256"
        }
      ],
      "name": "closeAd",
      "outputs": [],
      "stateMutability": "nonpayable",
      "type": "function"
    },
    {
      "inputs": [],
      "name": "refund",
      "outputs": [],
      "stateMutability": "nonpayable",
      "type": "function"
    },
    {
      "inputs": [
        {
          "internalType": "uint256",
          "name": "number",
          "type": "uint256"
        }
      ],
      "name": "get",
      "outputs": [
        {
          "internalType": "bytes32",
          "name": "",
          "type": "bytes32"
        }
      ],
      "stateMutability": "view",
      "type": "function"
    },
    {
      "inputs": [],
      "name": "getBalance",
      "outputs": [
        {
          "internalType": "uint256",
          "name": "",
          "type": "uint256"
        }
      ],
      "stateMutability": "view",
      "type": "function"
    },
    {
      "inputs": [
        {
          "internalType": "uint256",
          "name": "amount",
          "type": "uint256"
        }
      ],
      "name": "withdraw",
      "outputs": [],
      "stateMutability": "nonpayable",
      "type": "function"
    }
  ],
  "bytecode": "0x60806040526003600155600160065534801561001a57600080fd5b5061003761002c61003c60201b60201c565b61004460201b60201c565b610108565b600033905090565b60008060009054906101000a900473ffffffffffffffffffffffffffffffffffffffff169050816000806101000a81548173ffffffffffffffffffffffffffffffffffffffff021916908373ffffffffffffffffffffffffffffffffffffffff1602179055508173ffffffffffffffffffffffffffffffffffffffff168173ffffffffffffffffffffffffffffffffffffffff167f8be0079c531659141344cd1fd0a4f28419497f9722a3daafe3b4186f6b6457e060405160405180910390a35050565b610c2c806101176000396000f3fe6080604052600436106100a05760003560e01c8063715018a611610064578063715018a61461016d5780637df9364a146101845780638da5cb5b146101c15780639507d39a146101ec578063f2aa821814610229578063f2fde38b14610266576100a7565b806307931972146100a9578063111870d9146100d957806312065fe0146101025780632e1a7d4d1461012d578063590e1ae314610156576100a7565b366100a757005b005b6100c360048036038101906100be919061085a565b61028f565b6040516100d091906108b5565b60405180910390f35b3480156100e557600080fd5b5061010060048036038101906100fb91906108d0565b610333565b005b34801561010e57600080fd5b506101176103a7565b604051610124919061090c565b60405180910390f35b34801561013957600080fd5b50610154600480360381019061014f91906108d0565b6103af565b005b34801561016257600080fd5b5061016b6104e5565b005b34801561017957600080fd5b506101826104e7565b005b34801561019057600080fd5b506101ab60048036038101906101a691906108d0565b61056f565b6040516101b89190610936565b60405180910390f35b3480156101cd57600080fd5b506101d66105a9565b6040516101e39190610992565b60405180910390f35b3480156101f857600080fd5b50610213600480360381019061020e91906108d0565b6105d2565b6040516102209190610936565b60405180910390f35b34801561023557600080fd5b50610250600480360381019061024b91906108d0565b6105ef565b60405161025d9190610992565b60405180910390f35b34801561027257600080fd5b5061028d600480360381019061028891906109d9565b610625565b005b60006006543410156102a057600080fd5b82600081101580156102b3575060015481105b6102bc57600080fd5b33600285600381106102d1576102d0610a06565b5b0160006101000a81548173ffffffffffffffffffffffffffffffffffffffff021916908373ffffffffffffffffffffffffffffffffffffffff160217905550826005600086815260200190815260200160002081905550600191505092915050565b80336002826003811061034957610348610a06565b5b0160009054906101000a900473ffffffffffffffffffffffffffffffffffffffff1673ffffffffffffffffffffffffffffffffffffffff163373ffffffffffffffffffffffffffffffffffffffff16146103a257600080fd5b505050565b600047905090565b6103b761071d565b73ffffffffffffffffffffffffffffffffffffffff166103d56105a9565b73ffffffffffffffffffffffffffffffffffffffff161461042b576040517f08c379a000000000000000000000000000000000000000000000000000000000815260040161042290610a92565b60405180910390fd5b6000806104366105a9565b73ffffffffffffffffffffffffffffffffffffffff168360405161045990610ae3565b60006040518083038185875af1925050503d8060008114610496576040519150601f19603f3d011682016040523d82523d6000602084013e61049b565b606091505b5091509150816104e0576040517f08c379a00000000000000000000000000000000000000000000000000000000081526004016104d790610b44565b60405180910390fd5b505050565b565b6104ef61071d565b73ffffffffffffffffffffffffffffffffffffffff1661050d6105a9565b73ffffffffffffffffffffffffffffffffffffffff1614610563576040517f08c379a000000000000000000000000000000000000000000000000000000000815260040161055a90610a92565b60405180910390fd5b61056d6000610725565b565b60008160008110158015610584575060015481105b61058d57600080fd5b6005600084815260200190815260200160002054915050919050565b60008060009054906101000a900473ffffffffffffffffffffffffffffffffffffffff16905090565b600060056000838152602001908152602001600020549050919050565b600281600381106105ff57600080fd5b016000915054906101000a900473ffffffffffffffffffffffffffffffffffffffff1681565b61062d61071d565b73ffffffffffffffffffffffffffffffffffffffff1661064b6105a9565b73ffffffffffffffffffffffffffffffffffffffff16146106a1576040517f08c379a000000000000000000000000000000000000000000000000000000000815260040161069890610a92565b60405180910390fd5b600073ffffffffffffffffffffffffffffffffffffffff168173ffffffffffffffffffffffffffffffffffffffff161415610711576040517f08c379a000000000000000000000000000000000000000000000000000000000815260040161070890610bd6565b60405180910390fd5b61071a81610725565b50565b600033905090565b60008060009054906101000a900473ffffffffffffffffffffffffffffffffffffffff169050816000806101000a81548173ffffffffffffffffffffffffffffffffffffffff021916908373ffffffffffffffffffffffffffffffffffffffff1602179055508173ffffffffffffffffffffffffffffffffffffffff168173ffffffffffffffffffffffffffffffffffffffff167f8be0079c531659141344cd1fd0a4f28419497f9722a3daafe3b4186f6b6457e060405160405180910390a35050565b600080fd5b6000819050919050565b610801816107ee565b811461080c57600080fd5b50565b60008135905061081e816107f8565b92915050565b6000819050919050565b61083781610824565b811461084257600080fd5b50565b6000813590506108548161082e565b92915050565b60008060408385031215610871576108706107e9565b5b600061087f8582860161080f565b925050602061089085828601610845565b9150509250929050565b60008115159050919050565b6108af8161089a565b82525050565b60006020820190506108ca60008301846108a6565b92915050565b6000602082840312156108e6576108e56107e9565b5b60006108f48482850161080f565b91505092915050565b610906816107ee565b82525050565b600060208201905061092160008301846108fd565b92915050565b61093081610824565b82525050565b600060208201905061094b6000830184610927565b92915050565b600073ffffffffffffffffffffffffffffffffffffffff82169050919050565b600061097c82610951565b9050919050565b61098c81610971565b82525050565b60006020820190506109a76000830184610983565b92915050565b6109b681610971565b81146109c157600080fd5b50565b6000813590506109d3816109ad565b92915050565b6000602082840312156109ef576109ee6107e9565b5b60006109fd848285016109c4565b91505092915050565b7f4e487b7100000000000000000000000000000000000000000000000000000000600052603260045260246000fd5b600082825260208201905092915050565b7f4f776e61626c653a2063616c6c6572206973206e6f7420746865206f776e6572600082015250565b6000610a7c602083610a35565b9150610a8782610a46565b602082019050919050565b60006020820190508181036000830152610aab81610a6f565b9050919050565b600081905092915050565b50565b6000610acd600083610ab2565b9150610ad882610abd565b600082019050919050565b6000610aee82610ac0565b9150819050919050565b7f4661696c656420746f2073656e64204574686572000000000000000000000000600082015250565b6000610b2e601483610a35565b9150610b3982610af8565b602082019050919050565b60006020820190508181036000830152610b5d81610b21565b9050919050565b7f4f776e61626c653a206e6577206f776e657220697320746865207a65726f206160008201527f6464726573730000000000000000000000000000000000000000000000000000602082015250565b6000610bc0602683610a35565b9150610bcb82610b64565b604082019050919050565b60006020820190508181036000830152610bef81610bb3565b905091905056fea2646970667358221220c4755f2f2aa98c0d4aff2a92789ff7bdc5bcf42edd48cb1b8f6e15d7fb99778964736f6c634300080a0033",
  "immutableReferences": {},
  "source": "// SPDX-License-Identifier: MIT\npragma solidity >=0.8.0;\nimport \"@openzeppelin/contracts/access/Ownable.sol\";\n//import \"hardhat/console.sol\";\n\ncontract MyContract is Ownable{\n\n//Determine how many adSpots are available;\n  uint spots = 3;\n\n\n//all buyers who get to close their adSpace and get a refund\n  address[3] public buyers;\n\n//all avaialble ad spaces\n  mapping (uint => bytes32) adSpaces;\n\n//Price of a single adSpace;\n  uint price = 1;\n  \n\n//Verify it's the owner who's calling the contract\n  modifier verifyBuyer (uint adID, address _address) {\n    require(msg.sender == buyers[adID]);\n    _;\n  }\n\n//Verify buyer paid enough for the adSpace\n  modifier verifyAmount() {\n    require(msg.value >= price);\n    _;\n  }\n\n  modifier verifyExists(uint adID) {\n    require (adID >= 0 && adID < spots);\n    _;\n  }\n\n//Pick an adSpace # from the mapping and input a message to be displayed on the website\n  function buyAd(uint adID, bytes32 message) public payable verifyAmount verifyExists(adID) returns(bool) {\n\n    buyers[adID] = msg.sender;\n    adSpaces[adID] = message;\n    return true;\n  }\n\n  function showAd(uint adID) public view verifyExists(adID) returns(bytes32) {\n    return adSpaces[adID];\n  }\n\n//Remove an adSpace message and replace with default.\n  function closeAd(uint adID) public verifyBuyer(adID, msg.sender) {\n//    console.log(5);\n  }\n\n//Refund customer with the unused eth balance after closing the adSpace\n  function refund() public {\n\n  }\n\n//Return the message that is located at a certain mapping location\n  function get(uint number) public view returns (bytes32) {\n    return adSpaces[number];\n  }\n\n//Enable contract to receive money\n  receive() external payable {}\n\n//Fallback function is called when msg.data is not empty\n  fallback() external payable {}\n\n//Check money accured in the contract\n  function getBalance() public view returns (uint) {\n        return address(this).balance;\n    }\n\n//Withdraw money accured in the contract to owner of contract\n  function withdraw(uint amount) external onlyOwner {\n    (bool sent, bytes memory data) = owner().call{value: amount}(\"\");\n    require(sent, \"Failed to send Ether\");\n  }\n}\n",
  "sourcePath": "/home/scookie/github/blockchain-developer-bootcamp-final-project/contracts/MyContract.sol",
  "compiler": {
    "name": "solc",
    "version": "0.8.10+commit.fc410830.Emscripten.clang"
  },
  "schemaVersion": "3.4.3",
  "updatedAt": "2021-11-11T17:33:42.965Z",
  "devdoc": {
    "kind": "dev",
    "methods": {
      "owner()": {
        "details": "Returns the address of the current owner."
      },
      "renounceOwnership()": {
        "details": "Leaves the contract without owner. It will not be possible to call `onlyOwner` functions anymore. Can only be called by the current owner. NOTE: Renouncing ownership will leave the contract without an owner, thereby removing any functionality that is only available to the owner."
      },
      "transferOwnership(address)": {
        "details": "Transfers ownership of the contract to a new account (`newOwner`). Can only be called by the current owner."
      }
    },
    "version": 1
  },
  "userdoc": {
    "kind": "user",
    "methods": {},
    "version": 1
  }
}