{
  "contractName": "MyContract",
  "abi": [
    {
      "anonymous": false,
      "inputs": [
        {
          "indexed": true,
          "internalType": "address",
          "name": "previousOwner",
          "type": "address"
        },
        {
          "indexed": true,
          "internalType": "address",
          "name": "newOwner",
          "type": "address"
        }
      ],
      "name": "OwnershipTransferred",
      "type": "event"
    },
    {
      "stateMutability": "payable",
      "type": "fallback",
      "payable": true
    },
    {
      "inputs": [
        {
          "internalType": "uint256",
          "name": "",
          "type": "uint256"
        }
      ],
      "name": "ads",
      "outputs": [
        {
          "internalType": "uint256",
          "name": "adCount",
          "type": "uint256"
        },
        {
          "internalType": "uint256",
          "name": "price",
          "type": "uint256"
        },
        {
          "internalType": "uint256",
          "name": "expires",
          "type": "uint256"
        },
        {
          "internalType": "string",
          "name": "message",
          "type": "string"
        },
        {
          "internalType": "string",
          "name": "url",
          "type": "string"
        },
        {
          "internalType": "address",
          "name": "buyer",
          "type": "address"
        },
        {
          "internalType": "bool",
          "name": "sold",
          "type": "bool"
        }
      ],
      "stateMutability": "view",
      "type": "function",
      "constant": true
    },
    {
      "inputs": [],
      "name": "owner",
      "outputs": [
        {
          "internalType": "address",
          "name": "",
          "type": "address"
        }
      ],
      "stateMutability": "view",
      "type": "function",
      "constant": true
    },
    {
      "inputs": [],
      "name": "renounceOwnership",
      "outputs": [],
      "stateMutability": "nonpayable",
      "type": "function"
    },
    {
      "inputs": [
        {
          "internalType": "address",
          "name": "newOwner",
          "type": "address"
        }
      ],
      "name": "transferOwnership",
      "outputs": [],
      "stateMutability": "nonpayable",
      "type": "function"
    },
    {
      "stateMutability": "payable",
      "type": "receive",
      "payable": true
    },
    {
      "inputs": [
        {
          "internalType": "uint256",
          "name": "adID",
          "type": "uint256"
        },
        {
          "internalType": "uint256",
          "name": "_expires",
          "type": "uint256"
        },
        {
          "internalType": "string",
          "name": "_message",
          "type": "string"
        },
        {
          "internalType": "string",
          "name": "_url",
          "type": "string"
        }
      ],
      "name": "buyAd",
      "outputs": [
        {
          "internalType": "string",
          "name": "",
          "type": "string"
        }
      ],
      "stateMutability": "payable",
      "type": "function",
      "payable": true
    },
    {
      "inputs": [
        {
          "internalType": "uint256",
          "name": "adID",
          "type": "uint256"
        }
      ],
      "name": "showAd",
      "outputs": [
        {
          "internalType": "string",
          "name": "",
          "type": "string"
        }
      ],
      "stateMutability": "view",
      "type": "function",
      "constant": true
    },
    {
      "inputs": [
        {
          "internalType": "uint256",
          "name": "adID",
          "type": "uint256"
        }
      ],
      "name": "showAdUrl",
      "outputs": [
        {
          "internalType": "string",
          "name": "",
          "type": "string"
        }
      ],
      "stateMutability": "view",
      "type": "function",
      "constant": true
    },
    {
      "inputs": [],
      "name": "getPrice",
      "outputs": [
        {
          "internalType": "uint256",
          "name": "",
          "type": "uint256"
        }
      ],
      "stateMutability": "view",
      "type": "function",
      "constant": true
    },
    {
      "inputs": [
        {
          "internalType": "uint256",
          "name": "newPrice",
          "type": "uint256"
        }
      ],
      "name": "changePrice",
      "outputs": [],
      "stateMutability": "nonpayable",
      "type": "function"
    },
    {
      "inputs": [
        {
          "internalType": "uint256",
          "name": "adID",
          "type": "uint256"
        }
      ],
      "name": "getBuyer",
      "outputs": [
        {
          "internalType": "address",
          "name": "",
          "type": "address"
        }
      ],
      "stateMutability": "view",
      "type": "function",
      "constant": true
    },
    {
      "inputs": [
        {
          "internalType": "uint256",
          "name": "adID",
          "type": "uint256"
        }
      ],
      "name": "closeAd",
      "outputs": [],
      "stateMutability": "nonpayable",
      "type": "function"
    },
    {
      "inputs": [],
      "name": "refund",
      "outputs": [],
      "stateMutability": "nonpayable",
      "type": "function"
    },
    {
      "inputs": [],
      "name": "getBalance",
      "outputs": [
        {
          "internalType": "uint256",
          "name": "",
          "type": "uint256"
        }
      ],
      "stateMutability": "view",
      "type": "function",
      "constant": true
    },
    {
      "inputs": [],
      "name": "withdrawAll",
      "outputs": [],
      "stateMutability": "nonpayable",
      "type": "function"
    }
  ],
  "bytecode": "0x6080604052600360015560006002556509184e72a00060055534801561002457600080fd5b5061004161003661004660201b60201c565b61004e60201b60201c565b610112565b600033905090565b60008060009054906101000a900473ffffffffffffffffffffffffffffffffffffffff169050816000806101000a81548173ffffffffffffffffffffffffffffffffffffffff021916908373ffffffffffffffffffffffffffffffffffffffff1602179055508173ffffffffffffffffffffffffffffffffffffffff168173ffffffffffffffffffffffffffffffffffffffff167f8be0079c531659141344cd1fd0a4f28419497f9722a3daafe3b4186f6b6457e060405160405180910390a35050565b611655806101216000396000f3fe6080604052600436106100e15760003560e01c80637df9364a1161007f57806398d5fdca1161005957806398d5fdca146102a8578063a2b40d19146102d3578063edfef7ca146102fc578063f2fde38b1461032c576100e8565b80637df9364a14610229578063853828b6146102665780638da5cb5b1461027d576100e8565b8063590e1ae3116100bb578063590e1ae3146101815780635bf608b814610198578063715018a6146101d55780637a1bd8d1146101ec576100e8565b8063111870d9146100ea57806311a7a4c01461011357806312065fe014610156576100e8565b366100e857005b005b3480156100f657600080fd5b50610111600480360381019061010c9190610efc565b610355565b005b34801561011f57600080fd5b5061013a60048036038101906101359190610efc565b610491565b60405161014d979695949392919061102d565b60405180910390f35b34801561016257600080fd5b5061016b610610565b60405161017891906110aa565b60405180910390f35b34801561018d57600080fd5b50610196610618565b005b3480156101a457600080fd5b506101bf60048036038101906101ba9190610efc565b61061a565b6040516101cc91906110c5565b60405180910390f35b3480156101e157600080fd5b506101ea61065a565b005b3480156101f857600080fd5b50610213600480360381019061020e9190610efc565b6106e2565b60405161022091906110e0565b60405180910390f35b34801561023557600080fd5b50610250600480360381019061024b9190610efc565b61078a565b60405161025d91906110e0565b60405180910390f35b34801561027257600080fd5b5061027b610832565b005b34801561028957600080fd5b5061029261096e565b60405161029f91906110c5565b60405180910390f35b3480156102b457600080fd5b506102bd610997565b6040516102ca91906110aa565b60405180910390f35b3480156102df57600080fd5b506102fa60048036038101906102f59190610efc565b6109a1565b005b61031660048036038101906103119190611237565b610a27565b60405161032391906110e0565b60405180910390f35b34801561033857600080fd5b50610353600480360381019061034e9190611302565b610c4b565b005b80336003600083815260200190815260200160002060050160009054906101000a900473ffffffffffffffffffffffffffffffffffffffff1673ffffffffffffffffffffffffffffffffffffffff168173ffffffffffffffffffffffffffffffffffffffff16146103c557600080fd5b604051806020016040528060008152506003600085815260200190815260200160002060030190805190602001906103fe929190610e0f565b5060006003600085815260200190815260200160002060050160006101000a81548173ffffffffffffffffffffffffffffffffffffffff021916908373ffffffffffffffffffffffffffffffffffffffff16021790555060006003600085815260200190815260200160002060050160146101000a81548160ff02191690831515021790555061048c610618565b505050565b60036020528060005260406000206000915090508060000154908060010154908060020154908060030180546104c69061135e565b80601f01602080910402602001604051908101604052809291908181526020018280546104f29061135e565b801561053f5780601f106105145761010080835404028352916020019161053f565b820191906000526020600020905b81548152906001019060200180831161052257829003601f168201915b5050505050908060040180546105549061135e565b80601f01602080910402602001604051908101604052809291908181526020018280546105809061135e565b80156105cd5780601f106105a2576101008083540402835291602001916105cd565b820191906000526020600020905b8154815290600101906020018083116105b057829003601f168201915b5050505050908060050160009054906101000a900473ffffffffffffffffffffffffffffffffffffffff16908060050160149054906101000a900460ff16905087565b600047905090565b565b60006003600083815260200190815260200160002060050160009054906101000a900473ffffffffffffffffffffffffffffffffffffffff169050919050565b610662610d43565b73ffffffffffffffffffffffffffffffffffffffff1661068061096e565b73ffffffffffffffffffffffffffffffffffffffff16146106d6576040517f08c379a00000000000000000000000000000000000000000000000000000000081526004016106cd906113dc565b60405180910390fd5b6106e06000610d4b565b565b60606003600083815260200190815260200160002060040180546107059061135e565b80601f01602080910402602001604051908101604052809291908181526020018280546107319061135e565b801561077e5780601f106107535761010080835404028352916020019161077e565b820191906000526020600020905b81548152906001019060200180831161076157829003601f168201915b50505050509050919050565b60606003600083815260200190815260200160002060030180546107ad9061135e565b80601f01602080910402602001604051908101604052809291908181526020018280546107d99061135e565b80156108265780601f106107fb57610100808354040283529160200191610826565b820191906000526020600020905b81548152906001019060200180831161080957829003601f168201915b50505050509050919050565b61083a610d43565b73ffffffffffffffffffffffffffffffffffffffff1661085861096e565b73ffffffffffffffffffffffffffffffffffffffff16146108ae576040517f08c379a00000000000000000000000000000000000000000000000000000000081526004016108a5906113dc565b60405180910390fd5b6000806108b961096e565b73ffffffffffffffffffffffffffffffffffffffff166108d7610610565b6040516108e39061142d565b60006040518083038185875af1925050503d8060008114610920576040519150601f19603f3d011682016040523d82523d6000602084013e610925565b606091505b50915091508161096a576040517f08c379a00000000000000000000000000000000000000000000000000000000081526004016109619061148e565b60405180910390fd5b5050565b60008060009054906101000a900473ffffffffffffffffffffffffffffffffffffffff16905090565b6000600554905090565b6109a9610d43565b73ffffffffffffffffffffffffffffffffffffffff166109c761096e565b73ffffffffffffffffffffffffffffffffffffffff1614610a1d576040517f08c379a0000000000000000000000000000000000000000000000000000000008152600401610a14906113dc565b60405180910390fd5b8060058190555050565b6060848480600554610a3991906114dd565b341015610a4557600080fd5b8660008110158015610a58575060015481105b610a6157600080fd5b6040518060e00160405280600254815260200160055481526020016201518089610a8b91906114dd565b42610a969190611537565b81526020018781526020018681526020013373ffffffffffffffffffffffffffffffffffffffff16815260200160011515815250600360008a81526020019081526020016000206000820151816000015560208201518160010155604082015181600201556060820151816003019080519060200190610b17929190610e0f565b506080820151816004019080519060200190610b34929190610e0f565b5060a08201518160050160006101000a81548173ffffffffffffffffffffffffffffffffffffffff021916908373ffffffffffffffffffffffffffffffffffffffff16021790555060c08201518160050160146101000a81548160ff021916908315150217905550905050600360008981526020019081526020016000206003018054610bc09061135e565b80601f0160208091040260200160405190810160405280929190818152602001828054610bec9061135e565b8015610c395780601f10610c0e57610100808354040283529160200191610c39565b820191906000526020600020905b815481529060010190602001808311610c1c57829003601f168201915b50505050509350505050949350505050565b610c53610d43565b73ffffffffffffffffffffffffffffffffffffffff16610c7161096e565b73ffffffffffffffffffffffffffffffffffffffff1614610cc7576040517f08c379a0000000000000000000000000000000000000000000000000000000008152600401610cbe906113dc565b60405180910390fd5b600073ffffffffffffffffffffffffffffffffffffffff168173ffffffffffffffffffffffffffffffffffffffff161415610d37576040517f08c379a0000000000000000000000000000000000000000000000000000000008152600401610d2e906115ff565b60405180910390fd5b610d4081610d4b565b50565b600033905090565b60008060009054906101000a900473ffffffffffffffffffffffffffffffffffffffff169050816000806101000a81548173ffffffffffffffffffffffffffffffffffffffff021916908373ffffffffffffffffffffffffffffffffffffffff1602179055508173ffffffffffffffffffffffffffffffffffffffff168173ffffffffffffffffffffffffffffffffffffffff167f8be0079c531659141344cd1fd0a4f28419497f9722a3daafe3b4186f6b6457e060405160405180910390a35050565b828054610e1b9061135e565b90600052602060002090601f016020900481019282610e3d5760008555610e84565b82601f10610e5657805160ff1916838001178555610e84565b82800160010185558215610e84579182015b82811115610e83578251825591602001919060010190610e68565b5b509050610e919190610e95565b5090565b5b80821115610eae576000816000905550600101610e96565b5090565b6000604051905090565b600080fd5b600080fd5b6000819050919050565b610ed981610ec6565b8114610ee457600080fd5b50565b600081359050610ef681610ed0565b92915050565b600060208284031215610f1257610f11610ebc565b5b6000610f2084828501610ee7565b91505092915050565b610f3281610ec6565b82525050565b600081519050919050565b600082825260208201905092915050565b60005b83811015610f72578082015181840152602081019050610f57565b83811115610f81576000848401525b50505050565b6000601f19601f8301169050919050565b6000610fa382610f38565b610fad8185610f43565b9350610fbd818560208601610f54565b610fc681610f87565b840191505092915050565b600073ffffffffffffffffffffffffffffffffffffffff82169050919050565b6000610ffc82610fd1565b9050919050565b61100c81610ff1565b82525050565b60008115159050919050565b61102781611012565b82525050565b600060e082019050611042600083018a610f29565b61104f6020830189610f29565b61105c6040830188610f29565b818103606083015261106e8187610f98565b905081810360808301526110828186610f98565b905061109160a0830185611003565b61109e60c083018461101e565b98975050505050505050565b60006020820190506110bf6000830184610f29565b92915050565b60006020820190506110da6000830184611003565b92915050565b600060208201905081810360008301526110fa8184610f98565b905092915050565b600080fd5b600080fd5b7f4e487b7100000000000000000000000000000000000000000000000000000000600052604160045260246000fd5b61114482610f87565b810181811067ffffffffffffffff821117156111635761116261110c565b5b80604052505050565b6000611176610eb2565b9050611182828261113b565b919050565b600067ffffffffffffffff8211156111a2576111a161110c565b5b6111ab82610f87565b9050602081019050919050565b82818337600083830152505050565b60006111da6111d584611187565b61116c565b9050828152602081018484840111156111f6576111f5611107565b5b6112018482856111b8565b509392505050565b600082601f83011261121e5761121d611102565b5b813561122e8482602086016111c7565b91505092915050565b6000806000806080858703121561125157611250610ebc565b5b600061125f87828801610ee7565b945050602061127087828801610ee7565b935050604085013567ffffffffffffffff81111561129157611290610ec1565b5b61129d87828801611209565b925050606085013567ffffffffffffffff8111156112be576112bd610ec1565b5b6112ca87828801611209565b91505092959194509250565b6112df81610ff1565b81146112ea57600080fd5b50565b6000813590506112fc816112d6565b92915050565b60006020828403121561131857611317610ebc565b5b6000611326848285016112ed565b91505092915050565b7f4e487b7100000000000000000000000000000000000000000000000000000000600052602260045260246000fd5b6000600282049050600182168061137657607f821691505b6020821081141561138a5761138961132f565b5b50919050565b7f4f776e61626c653a2063616c6c6572206973206e6f7420746865206f776e6572600082015250565b60006113c6602083610f43565b91506113d182611390565b602082019050919050565b600060208201905081810360008301526113f5816113b9565b9050919050565b600081905092915050565b50565b60006114176000836113fc565b915061142282611407565b600082019050919050565b60006114388261140a565b9150819050919050565b7f4661696c656420746f2073656e64204574686572000000000000000000000000600082015250565b6000611478601483610f43565b915061148382611442565b602082019050919050565b600060208201905081810360008301526114a78161146b565b9050919050565b7f4e487b7100000000000000000000000000000000000000000000000000000000600052601160045260246000fd5b60006114e882610ec6565b91506114f383610ec6565b9250817fffffffffffffffffffffffffffffffffffffffffffffffffffffffffffffffff048311821515161561152c5761152b6114ae565b5b828202905092915050565b600061154282610ec6565b915061154d83610ec6565b9250827fffffffffffffffffffffffffffffffffffffffffffffffffffffffffffffffff03821115611582576115816114ae565b5b828201905092915050565b7f4f776e61626c653a206e6577206f776e657220697320746865207a65726f206160008201527f6464726573730000000000000000000000000000000000000000000000000000602082015250565b60006115e9602683610f43565b91506115f48261158d565b604082019050919050565b60006020820190508181036000830152611618816115dc565b905091905056fea26469706673582212203482893d6c480182be2cba44cef225b0592e79a91da6e8b585d139592b8d333564736f6c634300080a0033",
  "immutableReferences": {},
  "source": "// SPDX-License-Identifier: MIT\npragma solidity >=0.8.0;\nimport \"@openzeppelin/contracts/access/Ownable.sol\";\n//import \"hardhat/console.sol\";\n\ncontract MyContract is Ownable{\n\n//Determine how many adSpots are available;\n  uint spots = 3;\n  uint adCount = 0;\n\n//all buyers who get to close their adSpace and get a refund\n//  address[3] public buyers;\n\n//all avaialble ad spaces\n  mapping (uint => Ad) public ads;\n\n//Ad specifications\n\n  struct Ad {\n    uint adCount;\n    uint price;\n    uint expires;\n    string message;\n    string url;\n    address buyer;\n    bool sold;\n  }\n\n//Buyer's balance\n  mapping (address => uint) balances;\n\n//Price of a single adSpace;\n  uint price = 1e13; //0.0001 ether\n  \n\n//Verify it's the owner of an ad that's trying to call the contract;\n  modifier verifyBuyer (uint adID, address _address) {\n    require(_address == ads[adID].buyer);\n    _;\n  }\n\n//Verify buyer paid enough for the adSpace or have enough balance in their account;\n  modifier verifyAmount(uint adID, uint expires) {\n    require(msg.value >= price*expires);\n    _;\n  }\n\n//Verify the adID exists within range\n  modifier verifyExists(uint adID) {\n    require (adID >= 0 && adID < spots);\n    _;\n  }\n\n//Pick an adSpace # from the mapping and input a message to be displayed on the website\n  function buyAd(uint adID, uint _expires, string memory _message, string memory _url) public payable verifyAmount(adID, _expires) verifyExists(adID) returns(string memory) {\n    //require (ads[adID].sold == false);\n\n    ads[adID] = Ad({\n      adCount: adCount,\n      price: price,\n      expires: block.timestamp + (_expires * 1 days),\n      message: _message,\n      url : _url,\n      buyer : msg.sender,\n      sold : true\n    });\n\n    return ads[adID].message;\n  }\n  \n  function showAd(uint adID) public view returns(string memory) {\n    return ads[adID].message;\n  }\n\n  function showAdUrl(uint adID) public view returns(string memory) {\n    return ads[adID].url;\n  }\n  \n  function getPrice() public view returns(uint) {\n    return price;\n  }\n\n  function changePrice(uint newPrice) external onlyOwner {\n    price = newPrice;\n  }\n\n  function getBuyer(uint adID) public view returns(address) {\n    return ads[adID].buyer;\n  }\n\n//Remove an adSpace message and replace with default.\n  function closeAd(uint adID) public verifyBuyer(adID, msg.sender) {\n    ads[adID].message = \"\";\n    ads[adID].buyer = address(0);\n    ads[adID].sold = false;\n\n    refund();\n  }\n\n//Refund customer with the unused eth balance after closing the adSpace\n  function refund() public {\n\n  }\n\n\n//Enable contract to receive money\n  receive() external payable {}\n\n//Fallback function is called when msg.data is not empty\n  fallback() external payable {}\n\n//Check money accured in the contract\n  function getBalance() public view returns (uint) {\n        return address(this).balance;\n  }\n\n//Withdraw money accured in the contract to owner of contract\n  function withdrawAll() external onlyOwner {\n    (bool sent, bytes memory data) = owner().call{value: getBalance()}(\"\");\n    require(sent, \"Failed to send Ether\");\n  }\n}\n",
  "sourcePath": "/home/scookie/github/blockchain-developer-bootcamp-final-project/contracts/MyContract.sol",
  "compiler": {
    "name": "solc",
    "version": "0.8.10+commit.fc410830.Emscripten.clang"
  },
  "schemaVersion": "3.4.3",
  "updatedAt": "2021-11-24T03:43:49.420Z",
  "networkType": "ethereum",
  "devdoc": {
    "kind": "dev",
    "methods": {
      "owner()": {
        "details": "Returns the address of the current owner."
      },
      "renounceOwnership()": {
        "details": "Leaves the contract without owner. It will not be possible to call `onlyOwner` functions anymore. Can only be called by the current owner. NOTE: Renouncing ownership will leave the contract without an owner, thereby removing any functionality that is only available to the owner."
      },
      "transferOwnership(address)": {
        "details": "Transfers ownership of the contract to a new account (`newOwner`). Can only be called by the current owner."
      }
    },
    "version": 1
  },
  "userdoc": {
    "kind": "user",
    "methods": {},
    "version": 1
  }
}